:020000040000FA
:1000000030700010F9000000010100000301000041
:1000100005010000070100000901000000000000C8
:100020000000000000000000000000000B010000C4
:100030000D010000000000002B0600008D6900008B
:100040000F010000AD4B00000F0100000F01000088
:100050000F010000494D00007D4F000009520000D3
:10006000095400000F0100000F0100000F01000003
:100070000F0100000F0100000F0100000F01000040
:100080000F010000893D00000F0100000F0100007A
:100090000F0100000F0100000F0100000F01000020
:1000A0000F010000011300000F0100000F0100000C
:1000B0000F0100000F0100000F0100000F01000000
:1000C0000F0100000F0100000F01000009560000A1
:1000D0000F0100000F0100000F0100000F010000E0
:1000E0000F010000DFF80CD000F02AFA00480047AA
:1000F0000D68000030700010054880470548004733
:10010000FEE7FEE7FEE7FEE7FEE7FEE7FEE7FEE7C7
:10011000AD4A0000E50000000649074A0868504360
:1001200043F23902104408604008704701490860F2
:1001300070470000E80100106D4EC64140EA01031F
:100140009B0703D009E008C9121F08C0042AFAD28D
:1001500003E011F8013B00F8013B521EF9D2704751
:10016000D2B201E000F8012B491EFBD270470022F9
:10017000F6E710B513460A4604461946FFF7F0FFA6
:10018000204610BD2DE9FE4F804681EA0300C00FD6
:100190000C46009021F0004123F00045B8EB02002E
:1001A000A94105D24046214690461C460B460246D0
:1001B00023F00040104347D0270DC7F30A00C3F3D4
:1001C0000A510290401A019040286BDAC3F31300E1
:1001D00040F4801B0098924620B10023D2EB030A22
:1001E00063EB0B0B01985946C0F14002504600F0FA
:1001F00018F906460D4650465946019A00F030F966
:1002000010EB08006141002487EA115284EAE77389
:100210001A4340D0009A62B3019A012A4FEA07526A
:1002200015DC001B61EB02014FF0004202EA0752AD
:10023000CDE90042001C41F5801132462B4600F00A
:1002400030F903B0BDE8F08F40462146F9E7001BC6
:1002500061EB0201001C41F5801300185B4120187E
:10026000A2F5001747EB030140EAD570B6196D41BE
:1002700011E06D084FEA360645EAC0754FEA0752AD
:10028000001B61EB0201001C41F5801149084FEA97
:1002900030000019514132462B4603B0BDE8F04F03
:1002A00000F0F0B80098012240000023D0EB0202D9
:1002B00063EBE073009821464FEAE074B8EB00006E
:1002C00061EB0401E9E783F000435BE781F0004163
:1002D00058E70EB5C10F80EAE0700844CA07002154
:1002E00040F233438DE80E000A460B4600F0D9F881
:1002F00003B000BD7047704770477047FFFFFFFFB6
:100300002DE9FE4F81EA030404F0004421F000418E
:1003100000944FF0000B23F0004350EA01045ED03C
:1003200052EA03045BD0C3F30A54C1F30A552C44C8
:10033000A4F2F3340194A0FB0254C1F3130141F47D
:100340008011C3F3130343F4801301FB024400FB49
:10035000034E840A970A44EA815447EA8357A4FB70
:10036000076802958D0A05FB07854FEA932C04FB6D
:100370000C542705029D4FEA065847EA1637B5EB9D
:1003800008056EEB070C870E920E47EA811742EACA
:100390008312A7FB0201B6EB0B0164EB00042B0DEB
:1003A00043EA0C335E1844EB1C50DA465146E7FB37
:1003B0000201C5F313044FEA0B3343EA14534FEA27
:1003C0000432019C43EA0603A4F10C040294009C4D
:1003D000CDE900B400F065F803B0BDE8F08F00206F
:1003E0000146F9E770B5C1F30A5201F00045002457
:1003F000C1F3130140F2FF3341F480119A4201DA54
:10040000002070BD40F233439A42A2F2334203DC33
:10041000524200F015F800E090402C43F1D04042E9
:1004200070BD202A04DB203A00FA02F10020704758
:100430009140C2F1200320FA03F319439040704722
:10044000202A04DB203A21FA02F00021704721FA29
:1004500002F3D040C2F12002914008431946704790
:10046000202A06DBCB17203A41FA02F043EAE07378
:1004700006E041FA02F3D040C2F120029140084365
:100480001946704710B5141E73F1000408DA401CB9
:1004900041F1000192185B411A4301D120F00100A3
:1004A00010BD2DE9F04D92469B4611B1B1FA81F293
:1004B00002E0B0FA80F220329046FFF7B2FF044625
:1004C0000F4640EA0A0041EA0B0153465A460843E8
:1004D00013D0114653EA010019D0C8F1400250462A
:1004E000FFF7AEFF05460E46504659464246FFF717
:1004F00098FF084305D0012004E020463946BDE8B6
:10050000F08D0020054346EAE0762C4337430A98F5
:100510006305E40AA0EB08000022FD0A44EA475400
:100520000A3002D500200146E9E7010510196941AA
:10053000DDE9084500196941BDE8F04DA2E700007A
:10054000064C074D06E0E06840F0010394E8070020
:1005500098471034AC42F6D3FFF7C8FD946B000007
:10056000B46B000070B58C1810F8015B15F0070330
:1005700001D110F8013B2A1106D110F8012B03E03C
:1005800010F8016B01F8016B5B1EF9D12B0705D444
:100590000023521E0DD401F8013BFAE710F8013B8D
:1005A000CB1A921C03E013F8015B01F8015B521EA9
:1005B000F9D5A142D8D3002070BD000072B606B4B0
:1005C0002E490A7802F101020A7006BC704706B48F
:1005D0002A490A78A2F101020A704FF00001002AAC
:1005E00008BF81F3108806BC7047254C254D256057
:1005F0004FF0000484F30988234C4FF00105257067
:10060000224C4FF08055256062B6FEE730B41F4C97
:100610004FF08055256030BC704730B41B4C4FF014
:100620008055256030BC704700BFEFF3108372B671
:10063000EFF3098030B1A0F1200080E8F00F144CF6
:100640002468206000B5134880475DF804EB124C25
:10065000124D2E7826700E4C114E3668266030688A
:1006600090E8F00F00F1200080F309884EF0040EAE
:1006700083F31088704700BF72B6704710000010F7
:1006800020ED00E00000FFFF3E00001004ED00E060
:10069000440000108D2E00003300001034000010C4
:1006A0004C0000102DE9F04304460B460027B846E5
:1006B000B94600250026AC46082B02DD2846BDE8D9
:1006C000F08300212CE0605C302802DB605C39287C
:1006D00002DD605C2E281ED1605C2E2815D0B9F199
:1006E000000F05D04FF0000908F1010000F0FF08ED
:1006F000B8F1010F02DD4FF0FF30E0E705EB8500B8
:100700004500605C3038054408E0781CC7B28C4670
:100710004FF0010902E04FF0FF30D0E7481CC1B2B2
:100720009942D0DB012F02DD4FF0FF30C7E7BCF16B
:10073000000F0DD1002A2FDD0126002104E006EB79
:1007400086004600481CC1B29142F8DB754323E0A5
:100750000CF10100181AC3B29A420DDDD01AC2B2D0
:100760000126002104E006EB86004600481CC1B2C9
:100770009142F8DB75430FE09A420DDA981AC3B242
:100780000126002104E006EB86004600481CC1B2A9
:100790009942F8DBB5FBF6F5284690E730B50346FD
:1007A00000201BE013F81040612C0CDB022404FB3A
:1007B00000346478A4F1570513F81040E41F05EBEA
:1007C00004140C5409E0022404FB00346478303C27
:1007D00013F8105004EB05140C54401C02EBD275B6
:1007E000B0EB650FDED330BD10B501460A46C81721
:1007F00001EB10700011A1EB00100B46CC1701EBC0
:100800001474241104EB840400EB4400C0B210BD46
:10081000002078490860C877EBE0012300221146E8
:10082000104602F06FFB00F035FF724800680128A7
:1008300006D0022805D0032804D004287ED1B7E0D2
:10084000D6E0D5E06C480088401C6B4908806B48B6
:100850000088401C6949088069480088401C684934
:10086000088065480088FA2804DB00F0E9F90020D8
:100870006149088061480088FA2805DB00F00CFC1B
:1008800000205E49088008E05D480088322804DBCB
:1008900000F0C2F800205A4908805A48008855499B
:1008A000498A01EB8101B0EB410F2BDA55480088F2
:1008B0005049498A01EB8101C0EB4100C82815DC91
:1008C0005148006A40F080504F4908620846C06BAA
:1008D00040F08050C8630846006840F0010008609E
:1008E0000846806940F00100886141E046480068A0
:1008F00040F00100444908600846C06940F001002A
:10090000C86135E03F4800883A49498A01EB8101D6
:10091000B0EB410F2CDD3B4800883649498A01EB9A
:100920008101A0EB4100642817DC3748006A40F0E1
:100930008050354908620846C06B00E057E040F03F
:100940008050C8630846006840F00100086008460F
:10095000806940F0010088610AE02B48006840F09F
:100960000100294908600846C06940F00100C861DB
:10097000264800683C21B0FBF1F0254909898842EE
:1009800008D323488079012804D11A49C877002068
:100990001F4988711748C07A642808DB1C48807A90
:1009A000012804D100201349C8720120C8771FE034
:1009B00018480068401C174908600E48C07F01288D
:1009C00009D1084600680A21B0FBF1F201FB1200D0
:1009D00008B900F089FB0C48006840F001000A49A2
:1009E00008600846C06940F00100C86100E000BF2F
:1009F00000BF12E77C3C001084000010860000104D
:100A0000820000107800001000800920CC01001046
:100A10006C3C00108800001010B53E483E4908604C
:100A20003E48408A00EB800040F6B831B1EB400F01
:100A300008DC3A48408A00EB800041F64C51B1EBAB
:100A4000400F05DAB820364908700B20487014E0D2
:100A50003249498A01EB81014800C11700EB11615D
:100A60000912A0EB01212E4A11702C48408A00EB9C
:100A70008000C0F3D710114648702848808A00EBE8
:100A800080004FF47A61A1EB4000B0F57A6F09DC89
:100A90002248808A00EB8000A1EB400040F2DC514C
:100AA000884205DA80201E4988700C20C8701AE040
:100AB0001A49898A01EB81014FF47A62A2EB410065
:100AC000C11700EB11610912A0EB0121144A9170CA
:100AD0001248808A00EB80004FF47A61A1EB40005D
:100AE000000A1146C8700D48817A00208840C00075
:100AF00020B10A48807A0A49087102E002200849B8
:100B00000871074B044801210268052005F09CF894
:100B100010BD0000F4561018B40100107C3C001009
:100B2000B801001010B50E480E49086010200E499B
:100B300008700D204870002088700220C870FF20C7
:100B4000087100204871062088710020C8710B468A
:100B5000044801210268082005F076F810BD000065
:100B6000F456EC1CB4010010B801001010B50E488A
:100B70000E49086001200E49087077204870012056
:100B80008870A820C87003200871232048710220B3
:100B900088714C20C8710B46044801210268082066
:100BA00005F052F810BD0000F456EB1CB401001023
:100BB000B801001010B51E481E49086002201E49E9
:100BC00008701D204870782088701C49C97A01EB94
:100BD00081014800C11700EB11610912A0EB01214E
:100BE000154AD1701548C07A00EB800040F3D71049
:100BF000114608711149098A01EB81014800C117AA
:100C000000EB11610912A0EB012151710B48008A20
:100C100000EB8000C0F3D71011468871FF20C87127
:100C20000B46044801210268082005F00DF810BDAC
:100C3000F456EB1CB4010010B80100107C3C00100D
:100C400010B50E480E49086010200E4908700920A2
:100C50004870002088700220C870FF2008710020B2
:100C60004871112088710020C8710B460448012189
:100C70000268082004F0E8FF10BD0000F456EC1CE8
:100C8000B4010010B801001010B5284828490860C8
:100C90000120284908702849098801EB8101480092
:100CA000C11700EB11610912A0EB0121214A51701B
:100CB0002148008800EB8000C0F3D71011468870EF
:100CC0001D49498801EB81014FF47A62A2EB410092
:100CD000C11700EB11610912A0EB0121154AD17077
:100CE0001548408800EB80004FF47A61A1EB40008A
:100CF000000A114608711148C08AC0F303204871E8
:100D00000E49C88AC11700EB11610912A0EB01213D
:100D100091710A48C07A1146C8710B4604480121F6
:100D20000268082004F090FF10BD0000F456EB1C90
:100D3000B4010010B8010010780000107C3C0010D5
:100D400010B511481149086011490889C11700EB15
:100D500011610912A0EB01210E4A11700C480089A3
:100D6000000A1146487000208870FF20C870087182
:100D700048718871C8710B46044801210268082037
:100D800004F062FF10BD0000F456EB1CB40100102B
:100D90006C3C0010B801001010B508480849086004
:100DA00000200849087048708870C8700B460448D5
:100DB00001210268042004F047FF10BDF4561E080C
:100DC000B4010010B801001010B50D480D490860BD
:100DD0000D48007B00EB80004006000E0B490870B8
:100DE0000948808900EB80004000C0F3071048707C
:100DF0000B46044801210268022004F025FF10BDC3
:100E0000F4562718B40100107C3C0010B801001003
:100E100010B50E480E49086010200E4908703120A8
:100E20004870002088700720C870FF2008710020DB
:100E30004871022088710020C8710B4604480121C6
:100E40000268082004F000FF10BD0000F456EC1CFE
:100E5000B4010010B801001010B50E480E4908602A
:100E600001200E4908700020487001208870002081
:100E7000C8700B48407A0871F02048710A208871C8
:100E80007020C8710B46044801210268082004F054
:100E9000DBFE10BDF456EB1CB4010010B8010010CD
:100EA0007C3C001010B50B480B49086002200B4930
:100EB000087017204870FF208870C870087148714A
:100EC0008871C8710B46044801210268082004F0AB
:100ED000BBFE10BDF456EB1CB4010010B8010010AD
:100EE00010B50C480C49086003200C490870FF201D
:100EF00048708870C870087148718871C8710B4655
:100F0000054801210268082004F09EFE0A2001F035
:100F1000BFFF10BDF456EB1CB4010010B801001067
:100F200010B50B480B49086004200B490870FF20DE
:100F300048708870C870087148718871C8710B4614
:100F4000044801210268082004F07EFE10BD000064
:100F5000F456EB1CB4010010B801001010B50B489A
:100F60000B49086005200B490870FF204870887005
:100F7000C870087148718871C8710B460448012116
:100F80000268082004F060FE10BD0000F456EB1C5F
:100F9000B4010010B801001010B50B480B490860EF
:100FA00006200B490870FF2048708870C8700871CF
:100FB00048718871C8710B460448012102680820F5
:100FC00004F042FE10BD0000F456EB1CB40100100A
:100FD000B801001010B50B480B49086007200B49F9
:100FE0000870FF2048708870C87008714871887157
:100FF000C8710B46044801210268082004F024FE51
:1010000010BD0000F456EB1CB4010010B801001034
:1010100010B504460C480D4908601CB900200C4965
:10102000087002E0AA200A490870094B074801210C
:101030000268084604F008FEFA2300221146104612
:1010400001F060FF10BD0000F4560910B40100105B
:10105000B801001010B50D480D49086041200D4938
:10106000087095204870012088709920C870012070
:1010700008713D2048713E2088710B4604480121CB
:101080000268082004F0E0FD10BD0000F4561C18B2
:10109000B4010010B801001010B50F480F490860E6
:1010A00008200F4908700F48007F32304870122026
:1010B00088700C48407F3230C870202008710020B2
:1010C0004871102088710B460448012102680820ED
:1010D00004F0BAFD10BD0000F4561318B40100105E
:1010E000B80100107C3C001010B5084808490860A1
:1010F00000200849087048708870C8700B46044882
:1011000001210268042004F09FFD10BDF45619105F
:10111000B4010010B801001010B52248007A11285F
:1011200018D12048C06800F47F00B0F5003F11D10D
:1011300001201D49086068B1FFF78EFEFFF7B2FE7F
:10114000FFF7CEFEFFF7ECFEFFF708FFFFF724FFE7
:10115000FFF740FF1348007A11280ED11148C068EC
:1011600000F47F00B0F5C02F07D102200E490860BF
:1011700018B1FFF7FBFCFFF71DFD0A48007A1128A4
:101180000ED10848C06800F47F00B0F5881F07D171
:1011900003200549086018B1FFF776FDFFF7D0FD81
:1011A00010BD00000C6E00107C3C001010B5024613
:1011B000194800EB82342368C3F303400870D80F4A
:1011C00048701548001D00EB82342368487818B138
:1011D00023F06040486002E0C3F30A0048605AB957
:1011E0000D48083000EB823423688B60001D00EB53
:1011F00082342368CB600CE0012A0AD1064808300B
:1012000000EB823423688B60001D00EB823423687E
:10121000CB60012010BD00002040044070B50246A4
:101220000B46581EC3B2334800EB823000EB031468
:101230002168314801403148007800042F4E76780B
:1012400040EAC670014321602C4845782948001DBA
:1012500000EB823000EB031421683DB101F0E04166
:101260002648406820F06040014306E06FF30A0121
:1012700022488088C0F30A00014321601D480830DD
:1012800000EB823000EB03141C4880682060194892
:101290000C3000EB823000EB03141848C06820606B
:1012A00014482C3800EB8234216821F0030141F00E
:1012B000030121F0E00123B1012B05D0022B09D15C
:1012C00005E041F0200106E041F0400103E041F07B
:1012D000800100E000BF00BF21600648283800EB15
:1012E0008234216801F0080008B1012070BD00209F
:1012F000FCE7000030400440FFFFF03FFC6D0010B1
:10130000F0B5002440E0224800EB84352F6807F058
:101310000100002836D027F001072F6024BB1D48AC
:1013200001682046FFF742FF1A4801681A488142C7
:1013300003D130381749086004E0164800681030BF
:10134000144908601548007815490870134840781A
:1013500048701248406848600D48083800EB8435F2
:101360002E6846F004062E60012C0BD10D49204654
:10137000FFF71CFF0648083800EB84352E6846F05E
:1013800004062E60601CC4B2022CBCDBF0BD000061
:101390000C400440AC010010DC6D00100C6E00101D
:1013A000FC6D00101C6E0010F0B504460D4600BF29
:1013B00014B1012C44D11DE04348006840F40050B2
:1013C0004149C439C1F8C4004048406D20F00700CD
:1013D0003E4948650846406D40F0040048650846AF
:1013E000806D20F0070088650846806D40F004009D
:1013F000886526E03448006840F480403249C439AA
:10140000C1F8C4003148D0F81C0120F007002F4972
:10141000C1F81C010846D0F81C0140F00100C1F8D9
:101420001C010846D0F8200120F00700C1F8200177
:101430000846D0F8200140F00100C1F8200100E08A
:1014400000BF00BF204600F0F1FC214800EB8436CD
:10145000356001201F4908609CB91D481438406858
:1014600040F00E001A49143948600846006940F0FF
:10147000010008610846806888600846C06887B235
:1014800010E01548406840F00E00134948600846D7
:10149000006940F0010008610846806888600846DD
:1014A000C06887B202200B490860204602F0ECFBBE
:1014B0001920012181404209920002F1E022C2F884
:1014C000001100BFF0BD0000C4C00F4000C00240CA
:1014D0001440044000C003400080044010B5FFF7F2
:1014E0005BFC00200149086010BD00007C3C00103E
:1014F00010B5012002490860FFF766FC10BD00002E
:101500007C3C0010014631B1012907D0022908D0E6
:1015100003290CD108E007480068704706480068B6
:10152000FBE706480068F8E705480068F5E700BFF4
:10153000FEE700000000001004000010080000108A
:101540000C00001010B50948006802280DD10848A9
:10155000006A40F08050064908620846806B40F0FF
:1015600080508863AA20FFF753FD10BD7C3C00101B
:101570000080092010B50B48007A28B901200A49DB
:101580000860FFF745FC0CE00648007AAA2808D15D
:1015900005480068012804D1FFF7C4FA0220024977
:1015A000086010BD0C6E00107C3C001010B5164891
:1015B0000068022826D11548007A30B9AA20FFF722
:1015C00027FD0220104908601CE01048007AAA2874
:1015D00018D1FFF71DFD03200B49086000200C49BE
:1015E00008600C490860FFF717FAFFF729FB0A4863
:1015F000006840F00200084908600846806940F031
:101600000200886110BD00007C3C00100C6E0010D0
:10161000CC010010D00100100080092010B5FFF7A8
:1016200019FDFFF7B9FB01200249C87700200860C7
:1016300010BD00007C3C001010B5FFF755FDFFF712
:1016400009FD1248006A40F08050104908620846BF
:10165000C06B40F08050C8630846006840F001004D
:1016600008600846C06940F00100C861084600688B
:1016700040F0020008600846C06940F00200C861FE
:101680000420034908600020C87710BD00800920AD
:101690007C3C001010B53C4801683C4881420DD1AB
:1016A0003B483949096891E81C00C96880E81C007A
:1016B000C160364840383449086016E03449324841
:1016C0000468D4E901032268E468C1E90234C1E98D
:1016D00000202D4800680021016041608160C160E8
:1016E0002948006810302849086029484068294A7C
:1016F000811A90422AD013DC274AA0EB02019042C3
:1017000030D006DC2549084478B32549084468BB35
:101710001FE02448084498B1B0F5C02F2DD112E045
:10172000B1F5202F18D0B1F5A81F20D0B1F5F01FCA
:1017300003D01D480844C8B911E0FFF7D9FE1DE0E9
:10174000FFF718FF1AE0FEF7D6FD17E0FFF7FAFEE5
:1017500014E0FFF72BFF11E0FEF7CCFD0EE0FFF7E2
:10176000DBFC0BE0FFF768FF08E003E005E0FFF7B4
:1017700055FF03E0FFF7B2FE00E000BF00BF00200E
:101780000349486010BD0000B0010010EC6D00106E
:101790000C6E001056F4081856F41A10AA0BE0F755
:1017A000000015F8000019F800001CFB38B50446CD
:1017B000C1208DF80000A9208DF8010002208DF8CD
:1017C000020065208DF803006A460C21204604F0D3
:1017D00079FB01220021204604F004FB012211467E
:1017E000204604F0FFFAC82001F052FB03212046F6
:1017F00002F06CFE1949086008460068132806D0FC
:1018000010220121204604F0EDFA002038BD042208
:101810000121204604F0E6FA00BFC82001F038FBA1
:101820000221204602F052FE00F0080030B11022E2
:101830000121204604F0D6FA0020E7E706212046E1
:1018400002F044FEFF2805D010220121204604F0BA
:10185000C9FA00E0E1E700BF0120D7E73C01001032
:1018600010B502F04BFB00F033F810BD2DE9F0414C
:1018700005460F46164606F10608404604F0FEFFF0
:1018800004465A202070A5206070F01CA0708220B1
:10189000E070281220712846E91705EB1161091242
:1018A000A5EB0121617132463946A01DFEF746FCC9
:1018B000B11D204603F054FB0523002211461046BB
:1018C00001F020FB204604F079FFBDE8F081000024
:1018D00010B58AB0A048018840F2012000F026FA35
:1018E0009D484088642190FBF1F084B2214640F28B
:1018F000022000F01BFA9948408A00EB80004FF666
:10190000FF7202EA400140F2032000F00FFA934810
:10191000808A00EB80004FF6FF7202EA40014FF42C
:10192000017000F003FA8D48C17A4FF44C7000F05A
:10193000FDF98A48008A00EB80004FF6FF7202EA48
:1019400040014FF4447000F0F1F98448418B4FF4AA
:10195000507000F0EBF98148817F4FF4547000F033
:10196000E5F97E48808900EB80004FF6FF7202EABD
:1019700040014FF4006000F0D9F97848C08900EBCD
:1019800080004FF6FF7202EA40014FF4016000F060
:10199000CDF97248C18A4FF4046000F0C7F96F486E
:1019A000018B4FF4056000F0C1F96C48017F4FF4E2
:1019B000066000F0BBF96948417F4FF4076000F012
:1019C000B5F96648017A4FF4086000F0AFF9634852
:1019D000808800EB80004FF6FF7202EA40014FF46E
:1019E000026000F0A3F95D48C08800EB80004FF66C
:1019F000FF7202EA40014FF4036000F097F90622FB
:101A000001A9574800F0D8FC0C2201A94FF4096045
:101A100000F0BFF9524801894FF4106000F086F9D8
:101A20004F4881894FF4116000F080F911224B4931
:101A300020314FF4126000F0ACF94A48406B00F4DA
:101A4000801030B1042248494FF4A060FFF70EFF28
:101A50000BE0042200214FF4A060FFF707FF0222F1
:101A600042494FF4A060FFF701FF3C48807A01280B
:101A700002D002280ED106E004223D494FF4A260B4
:101A8000FFF7F4FE07E004223A494FF4A260FFF7A3
:101A9000EDFE00E000BF00BF3048407A05282ED0A0
:101AA00008DC01280FD0022814D0032819D00428FC
:101AB00048D11DE0062829D007282ED0082833D089
:101AC000FF283FD137E008222B494FF4A460FFF7ED
:101AD000CDFE3EE0082229494FF4A460FFF7C6FE80
:101AE00037E0082226494FF4A460FFF7BFFE30E03C
:101AF000082224494FF4A460FFF7B8FE29E0082229
:101B000021494FF4A460FFF7B1FE22E008221F49EB
:101B10004FF4A460FFF7AAFE1BE008221C494FF413
:101B2000A460FFF7A3FE14E008221A494FF4A46052
:101B3000FFF79CFE0DE0082217494FF4A460FFF761
:101B400095FE06E0082214494FF4A460FFF78EFECC
:101B500000BF00BF0AB010BD780000107C3C001030
:101B60006C3C0010008009209700001094000010C9
:101B70009C000010A1000010A6000010AF00001093
:101B8000B8000010C1000010CA000010D3000010FF
:101B9000DC000010E5000010EE0000102DE9F04719
:101BA0000446894617462078AA2802D16078F5288D
:101BB00002D00020BDE8F087A178E07801EB00209A
:101BC00085B22079022801D00020F3E794F805803F
:101BD000A179E07901EB0020C6B2672E54D00EDC6B
:101BE000072E36D006DC012E18D0032E1FD0052E6E
:101BF00077D125E0092E35D0652EF9D13BE0C92EED
:101C000066D006DC692E48D06B2E4FD06D2E7BD16E
:101C100055E0CB2E66D0CD2E76D16CE0A5F1090033
:101C200081B23A4604F1080004F09BFC6DE0A5F196
:101C3000090081B23A4604F1080004F071FD64E045
:101C4000A5F1090081B23A4604F1080004F0B3FDA1
:101C50005BE0A5F1090081B23A4604F1080004F006
:101C6000ABFD52E0A5F1090081B23A4604F108004B
:101C700004F0A3FD49E0A5F1090081B23A4604F160
:101C8000080004F005FA40E0A5F1090081B23A46E7
:101C900004F1080004F03AFA37E0A5F1090081B236
:101CA0003A4604F1080004F035FB2EE0A5F10900E6
:101CB00081B23A4604F1080004F048FC25E0A5F1A1
:101CC000090081B23A4604F1080004F043FC1CE02C
:101CD000A5F1090081B23A4604F1080004F042FC83
:101CE00013E011E0A5F1090081B23A4604F10800C1
:101CF00004F00EFD09E0A5F1090081B23A4604F1B5
:101D0000080004F009FD00E000BF00BF56B106481E
:101D100000684FF6FF71884204D203480068401CF7
:101D200001490860304645E7500100107CB5054682
:101D30000E466C465A2004F8010BA52004F8010B4E
:101D4000052004F8010B822004F8010B281204F886
:101D5000010B2846E91705EB11610912A5EB0121DA
:101D600004F8011B301204F8010B3046F11706EBA2
:101D700011610912A6EB012104F8011B0821684634
:101D800003F0EEF8052300221146104601F0BAF8E0
:101D90007CBD2DE9F04705468946174607F1060840
:101DA000404604F06BFD064634465A2004F8010B09
:101DB000A52004F8010BF81C04F8010B822004F89C
:101DC000010B281204F8010B2846E91705EB1161F5
:101DD0000912A5EB012104F8011B2046641C3A46B8
:101DE0004946FEF7ABF94146304603F0B9F8052302
:101DF00000221146104601F085F8304604F0DEFC62
:101E0000BDE8F08710B507480078012809D10648D9
:101E1000007830B902F068F803F0E4FE002003F027
:101E20008DFE10BD440100104601001008B50146AA
:101E3000084800EB813210680090009820F0010003
:101E4000401C00900098106010680090009800F00E
:101E5000010008BD0040044010B502F0EDFC04464E
:101E6000204610BD10B50446204602F00DFD10BD01
:101E700040F2E271C1800C2141710521C170042141
:101E800001710C21817041700170704708B500909C
:101E900002E00099491E009100990029F9D108BD7E
:101EA0002DE9F04104460D4616461848006840F4F6
:101EB0008030164908600846C06940F48030C86127
:101EC0000520FFF7E3FF032002F05AFC280A02F086
:101ED00057FCE8B202F054FC002705E002F028FCB1
:101EE0002070641C781C87B2B742F7DB0520FFF72F
:101EF000CDFF0648006840F4803004490860084679
:101F0000806940F480308861BDE8F081008009205C
:101F100010B51248006840F4803010490860084647
:101F2000C06940F48030C8610520FFF7AFFF05208D
:101F300002F026FC02F0FCFB04460520FFF7A6FF9A
:101F40000648006840F4803004490860084680690B
:101F500040F480308861204610BD000000800920D8
:101F60002DE9F04104460D461746FFF7D1FF8046A4
:101F700008F07100002857D12C48006840F48030E8
:101F80002A4908600846C06940F48030C8610520CD
:101F9000FFF77CFF062002F0F3FB0520FFF776FF3A
:101FA0002248006840F48030204908600846806973
:101FB00040F4803088610520FFF768FF00BFFFF71D
:101FC000A7FF00F080000028F9D11848006840F40D
:101FD0008030164908600846C06940F48030C86106
:101FE0000520FFF753FF022002F0CAFB280A02F087
:101FF000C7FBE8B202F0C4FB002605E0207802F03F
:10200000BFFB641C701C86B2BE42F7DB0520FFF7E5
:102010003DFF0648006840F48030044908600846E7
:10202000806940F480308861BDE8F081008009203B
:102030002DE9F04304460D4616461F46DDF81CC048
:102040000020E1E014F80080B8F1680F75D100F1CC
:10205000070814F80880B8F1680FF7D100F10908F3
:1020600014F8088008F10A0808F0FF0200EB0208E3
:1020700008F1010814F80880B8F1160F00D0BFE08D
:10208000002300210AE000EB010814F808809844BE
:1020900008F0FF0301F101081FFA88F19142F2DB19
:1020A00000EB020814F80880984500D0A8E004EB83
:1020B0000008D8F80190C5F80090B8F80580A5F898
:1020C000048000F1080814F8088008F0800202B9C2
:1020D00096E000F1080814F8088008F0400202B108
:1020E0008EE000F1080814F8088008F00F02012AB9
:1020F00001D0022A56D100F1090814F80880B8F17D
:10210000040F00DC7CE000F1090814F80820102A14
:1021100000DD75E000210CE000F10A08884414F8A5
:102120000880A8F1330806F8018001F101081FFAC0
:1021300088F10429F0DB042131E060E000F10A08B5
:10214000884414F80880B8F1320F0FD000F10A0863
:10215000884414F80880B8F1000F07D000F10A088D
:10216000884414F80880B8F1FF0F07D14FF0000938
:1021700000F10A08884404F808900CE000F10A080D
:10218000884414F80880A8F1330808F0FF09A1F189
:10219000040807F8089001F101081FFA88F191423C
:1021A000CCDB2BE0042A29D100F1090814F80880BF
:1021B000B8F1000F00D023E00A22002300210AE03A
:1021C00000EB010814F80880984408F0FF0301F1BF
:1021D00001081FFA88F19142F2DB00EB020814F8C3
:1021E0000880984500D00BE000EB020808F10108D8
:1021F00014F80880B8F1160F00D001E007E000BF26
:1022000000F101081FFA88F06045FFF41BAF00BF22
:10221000BDE8F0832DE9F043844688461546DDE9A4
:1022200007463146FE2001F8010B01F8010B01F8C9
:10223000010B01F8010B682001F8010BDCF800002C
:102240000860BCF804008880891D682001F8010B33
:1022500001F8018B01F8014B042C1CDB05F1330064
:1022600001F8010B280A333001F8010B280C333038
:1022700001F8010B332000EB156001F8010B00227F
:1022800006E013F8010B333001F8010B501CC2B209
:10229000201F9042F5DC0027042204E0B05C3844A3
:1022A000C7B2501CC2B204F10E008242F6DB01F844
:1022B000017B162001F8010B04F11000C0B2BDE84B
:1022C000F08300002048006840F480501E490860F8
:1022D0000846C06940F48050C8610846006C40F46C
:1022E000805008640846C06D40F48050C8650846B8
:1022F000006840F4803008600846806940F480300F
:10230000886111488030006840F48060C1F8800026
:102310000846D0F89C0040F48060C1F89C00084654
:10232000006E20F0007008660846006A20F48010F5
:1023300008620846006A20F4000008620846006A45
:1023400020F08070086270470080092001460A2052
:1023500091FBF0F200FB121291FBF0F002EB001087
:10236000C0B2704770B504460D4616461048007856
:1023700000B970BD0F4800684FF6FF71884204D263
:102380000C480068401C0B490860012E0BD102204C
:1023900000F07EFD2A462146002003F091FC022039
:1023A00000F076FD00E000BF00BF00BFE1E70000E5
:1023B000460100104C01001070B504460B46002089
:1023C0001DE0255C29110A2904DB01F1570503F8FA
:1023D000105003E001F1300503F81050255C05F0C2
:1023E0000F010A2905DB01F1570503EB4006757063
:1023F00004E001F1300503EB40067570401C90428B
:10240000DFD370BD10B50948007801280DD1410215
:102410000748FDF7ACFE0649002001F0BDFF054965
:102420000880034904A001F01EFB10BD4401001008
:102430002C41001038010010257300007CB50024E9
:1024400072E00025AA2206213948FDF789FE3848A6
:102450000021C1600161416136480421CDE90010CD
:10246000354850F82420324B0C3311213048FFF707
:10247000D1FE32490880084601882E4802F090FEBD
:102480002C492FA001F0EFFA4FF4FA73012200213A
:10249000084600F037FD2B480021C0F80610C16047
:1024A000016141614FF48060264B0C339A1F911FEC
:1024B00000902548FFF7BCFDC6B22248407A0106CD
:1024C0002048007A41EA00411E48C07941EA0020D4
:1024D0001C49897940EA0105B5F5803F16D01B48B3
:1024E000284418B1B0F5803F18D107E00C211548F9
:1024F0000C3000F06FF81649088010E00C211148EC
:102500000C3000F067F81249488008E00C210D48B3
:102510000C3000F05FF80E49486000E000BF00BFDB
:1025200002F01AFE601CC4B2032C8ADB7CBD0000E2
:10253000FC400010FC3C0010886B0000F80000100C
:102540002573000014410010AC55001000FFFEFD83
:102550007800001070B5002400251B480088782101
:1025600090FBF1F0012805DB00201749088001F0FD
:10257000BBFC70BD15480078012802D014480078D3
:1025800000B9F6E711480078012815D0002411E0C1
:1025900001216A2003F0DAF8002507E04FF4FA6021
:1025A00000F076FC02F04EF8681CC5B2032DF5DB96
:1025B000601CC4B20A2CEBDB0448007810B9002080
:1025C0000349087000BFD4E7C8010010470100109C
:1025D00046010010F0B506460C46002700250BE02A
:1025E000611B491E705CFEF7FFF807EBC70101EBAA
:1025F000071100EB81076D1CA542F1D33846F0BDF1
:1026000000F01F02012191404209920002F1E022F4
:10261000C2F800117047014600E0491E0029FCDCA9
:10262000704700001D481E481E481F481F4820488C
:10263000204821482148224822482348234824484A
:10264000244825482548264826482748274828481A
:102650002848294829482A482A482B482B482C48EA
:102660002C482D482D482E482E482F482F483048BA
:10267000304831483148324832483348334834488A
:10268000344835483548364836483748374838485A
:1026900038483948394800BF70470000146B0000C3
:1026A000186B00001E6B0000206B00001C6B00000C
:1026B000226B0000246B0000266B0000286B0000DA
:1026C0002A6B00002C6B00002E6B0000306B0000AA
:1026D000326B0000346B0000366B0000386B00007A
:1026E0003A6B00003C6B00003E6B0000406B00004A
:1026F000426B0000446B0000466B0000486B00001A
:102700004A6B00004C6B00004E6B0000506B0000E9
:10271000526B0000546B0000566B0000586B0000B9
:102720005A6B00005C6B00005E6B0000606B000089
:10273000626B0000646B0000666B00006A6B000057
:102740006C6B00006E6B0000706B00009C10001042
:102750001C150010746B0000766B0000786B000095
:102760007A6B00007C6B00007E6B0000806B0000C9
:10277000826B0000846B0000726B0000866B0000AF
:1027800070B505460E4614461048007810B1122068
:10279000207070BD2878012808D0022807D00328AF
:1027A00002D0042804D100E000BF00BF00BF02E057
:1027B00001202070EDE700BFFDF700FF6E61FDF71F
:1027C00006FF0020207000BFE3E70000310000108A
:1027D00010B500F019F800F0ADFE00F0D5FE00F0E5
:1027E000F5FE00F077FE00F049FE00F089FF00F0F2
:1027F000B3FF00F02BFF00F051FF00F03FFCFDF7AE
:102800007BFDFFF70FFF10BD0020014908807047D6
:102810001400001010B51A48007801282ED1FDF7D9
:10282000CDFE1848007820B116480078401E1549A2
:10283000087014480078F8B913480078E0B900F03F
:10284000EBFF12481249097850F82100114908603D
:102850000F4800781049097888420DD00D4800686B
:10286000C06B401C0B490968C8630C480068401CD9
:102870000A490860FDF7D1FEFDF7A9FE10BD000072
:102880003E0000103100001032000010340700102C
:10289000340000104C00001033000010180000102D
:1028A00010B50A48007801280FD1FDF787FE0848C7
:1028B000007840B907480078FF2804D2054800781E
:1028C000401C04490870FDF782FE10BD3E00001058
:1028D000310000103200001010B5114800780128B6
:1028E0001CD1FDF76BFE0F480078A8B10D480078A9
:1028F000401E0C4908700846007850B90A48007814
:1029000020B9FDF764FE00F04FFF07E0FDF75FFE22
:1029100004E0FDF75CFE01E0FDF759FE10BD00008C
:102920003E000010320000103100001070B5054666
:102930000F48007808B1002070BDFDF73FFE0D483C
:102940000468006820B10B480068406809490860C5
:10295000FDF73DFE4CB10320207025810020606012
:1029600005A06061204600F07BFD2046E4E7000002
:10297000310000101C0000103F00000070B505463B
:102980000E4614462878032802D00120207070BD1E
:102990002F48007810B102202070F8E72D48007809
:1029A00010B10D202070F2E7FDF708FE288938B13C
:1029B0002889401E2881FDF70AFE00202070E6E7E6
:1029C0002548006890F8340040F001002249096869
:1029D00081F8340000202049096881F835001E483C
:1029E00000680663284600F0FDFCFDF7F0FD00F0EE
:1029F000DBFEFDF7E3FD1848006890F8350020B1D4
:102A0000012809D0022806D102E0002020700BE046
:102A10000E20207008E000BF29460F48006800F033
:102A2000AFFC0A20207000BF00BF00200A490968DF
:102A300081F834000849096881F8350006490968B9
:102A4000C861054909680862FDF7C1FD00BF9EE73E
:102A500031000010320000104400001010B5044690
:102A60002078032801D0012010BDFDF7A7FDA07A32
:102A700058B1002301221946204600F039FCFDF729
:102A8000A6FD00F091FE0020EEE720894FF6FF71D1
:102A9000884206D22089401C2081FDF798FD002045
:102AA000E2E7FDF794FD3320DEE7000010B50B48A8
:102AB000007890B900F0B0FE094800780949087024
:102AC00009480749097850F8210008490860084674
:102AD000006807490860FDF788FD10BD3E00001042
:102AE0003400001033000010340700104C000010B8
:102AF0004400001010B5022000F0CAF9FDF75EFD99
:102B0000002009490860FDF762FD642000F0C0F96B
:102B1000FDF754FD04480068044908600120044999
:102B20000870FDF754FD10BD400000102800001093
:102B3000300000102DE9FE4306460F4690461C4625
:102B4000FDF73CFD1C48007820B1FDF740FD3C201E
:102B5000BDE8FE83194850F8240048BB01201749FE
:102B600041F82400FDF733FD002342463946304644
:102B700000F0F0F8814600200090019003460246E4
:102B800049460290204600F05DFE054635B90C48E6
:102B9000007801280AD100F007FE07E0FDF70EFDDE
:102BA0000020064941F82400FDF711FD2846CFE733
:102BB000FDF70DFD2820CBE7310000103407001091
:102BC0003E0000102DE9FF5F81468A4693461C4671
:102BD000DDE90F78129DFDF7F1FC2048007828B15F
:102BE000FDF7F5FC3C2004B0BDE8F09F1C4850F810
:102BF000240070BB01201A4941F82400FDF7E7FCCE
:102C00002A464146384600F021FF2B465A46514697
:102C1000484600F09FF803901198CDE90080029596
:102C20003A4620460E9B039900F00CFE064636B944
:102C30000C48007801280AD100F0B6FD07E0FDF746
:102C4000BDFC0020064941F82400FDF7C0FC3046D9
:102C5000C9E7FFE7FDF7BBFC2820C4E731000010FF
:102C6000340700103E000010704770472DE9F04116
:102C700006460F4614461348007818B112202070FB
:102C8000BDE8F081FDF79AFCFF2E03D10E480068E5
:102C900090F836600D4850F8265025B9FDF797FC9E
:102CA00043202070ECE7012D04D1FDF790FC432078
:102CB0002070E5E72F65FDF78AFC0020207000BF3B
:102CC000DEE700003100001044000010340700105F
:102CD000704700002DE9F04707460D4600202860A8
:102CE0006860FDF76BFCFF2F03D11848006890F86F
:102CF0003670174850F8274024B9FDF768FC432088
:102D0000BDE8F087012C03D1FDF761FC4320F7E714
:102D1000207C00F0010018B9FDF759FC4520EFE7D1
:102D20000026D4F80C90D4F80880FDF750FC00E0A1
:102D3000761C58F8041B0029FAD0B0002860A9EBD3
:102D40000600800068600020DAE700004400001000
:102D50003407001070B5044610464FF080750560CA
:102D6000051F28462C606FF00106051F28462E60BF
:102D70004FF01236051F28462E604FF00336051F10
:102D800028462E604FF00236051F28462E6076102A
:102D9000051F28462E60051F284629604FF0113672
:102DA000051F28462E604FF01036051F28462E605E
:102DB0004FF00936051F28462E604FF00836051FD4
:102DC00028462E604FF00736051F28462E604FF02C
:102DD0000636051F28462E604FF00536051F28468B
:102DE0002E604FF00436051F28462E6070BD00008F
:102DF0002DE9F0410546FDF7E1FBFF2D05D11F4808
:102E0000006890F83650012608E01C48006890F8E9
:102E10003600A84201D1012600E00026184850F8EB
:102E2000254024B9FDF7D3FB4820BDE8F081012CF3
:102E300003D1FDF7CCFB4320F7E794F83870114835
:102E4000C05D94F8391088430E49C8550846C05DE6
:102E500030B994F83A100C48007888430A49087051
:102E600094F8340040F0080084F83400FDF7AFFB1C
:102E7000012E01D100F098FC0020D6E7440000109C
:102E800034070010360000103500001070470000B5
:102E900070B505461648007800B170BD1548007839
:102EA00000B1FAE70DB3FDF789FB1348006890F80D
:102EB00038401248005D1049096891F8391088437C
:102EC0000E4908550846005D40B90B48006890F867
:102ED0003A100B4800788843094908700648006892
:102EE0000563FDF774FB00F05FFC00BFD5E7000051
:102EF00031000010320000104400001036000010B5
:102F0000350000102DE9F04105460E4617461C46D7
:102F10001248007810B15520BDE8F08110480078C3
:102F200008B13220F8E74FF47A7060434FF47A71B9
:102F3000B0FBF1F14FF461606843C6EB061200EBA1
:102F40008200384400EB4002C2EBC01001EBC00825
:102F50004046FFF79DFF0020DEE700003100001033
:102F60003200001070B500F06DF8FDF727FB2F4818
:102F70000068401C2D490860FDF729FB2C480078AB
:102F8000012851D12B48007820B1012804D0022813
:102F900009D103E001250BE0002509E0012501200E
:102FA0002449087004E0012500202249087000BF70
:102FB00000BF05B970BD2048046831E0FDF7FEFA96
:102FC000206B50B3206B401E2063206B28BB94F80D
:102FD000340000F0370040B114F8340F00F0C8009E
:102FE000207001206070343C02E0002084F835003D
:102FF00094F8340000F0080078B93834A0780F490C
:10300000097808430D49087020780D49085C6178FB
:10301000084314F838190A4A50546469FDF7D7FA7E
:1030200094F836003F28C9D100BFC3E76000001004
:103030003E00001054000010500000103500001039
:103040003600001010B507480088401C054908806C
:1030500008460088642803D30020088000F004F8A4
:1030600010BD00001400001010B503480068FFF701
:10307000F5FC0446204610BD70000010F8B54FF472
:103080002071284800F032FB4021274800F02EFB39
:10309000002514E0681C86B205EB8500214901EB90
:1030A000C00406EB860001EBC007642020700020FE
:1030B00084F82500E7601DA02062681C85B20F2DF2
:1030C000E8D305EB8500174901EBC00464202070AC
:1030D000002084F82500E06014A02062002014493C
:1030E0000860144908801020134908800D481349CE
:1030F00008600120FFF71AFC114908600020FFF763
:1031000015FC104908606A460FA10D480068FFF7DA
:1031100037FB6A4611A10B480068FFF731FB00F04E
:1031200027F8F8BD9C1000101C1500103F0000008F
:1031300068000010660000106400001074000010A9
:103140006C0000107000001075432F4F532D49493B
:1031500020546D724C6F636B0000000075432F4F5D
:10316000532D494920546D725369676E616C00009C
:1031700000B587B00320002180220A4BCDE901323F
:10318000CDE903104FF6FD703C23074A0090074835
:10319000FFF718FD06AA06A13C20FFF767FD07B060
:1031A00000BD00001C130010181500102D32000087
:1031B00075432F4F532D494920546D720000000074
:1031C00070B50B46032580F82550012B05D1154E0F
:1031D000C5693668354445610CE085692DB9114EE5
:1031E000C56936683544456104E00E4E8569366828
:1031F00035444561057D05F007040B4D05EBC40121
:103200000D682DB908600025C56001258D8006E098
:103210000A680860C26010618D886D1C8D80002571
:10322000056170BD680000101C15001008B500BFD6
:1032300000BF6A4600211A480068FFF79FFBFFF7AE
:103240002FFB18480068401C1649086008460078A3
:1032500000F00708144800EBC8073C681AE0E6686D
:10326000104960690968884213D1204600F01EF8B1
:1032700094F82400022804D101212046FFF7A0FF82
:1032800002E0022084F82500656815B12046A16897
:10329000A8473446002CE2D1FFF71EFBC9E7000027
:1032A00070000010680000101C15001030B5057D7E
:1032B00005F007040D4D05EBC4031D68854205D1DB
:1032C000C168196039B100250D6104E00169C26867
:1032D000CA6002B11161012580F825500025C56042
:1032E00005619D886D1E9D8030BD00001C1500107D
:1032F0002DE9F04F05460F4690469946A87A1C499D
:103300000E5C05F10B00805D11F800B00BEBC60000
:1033100000F0FF0A174850F82A4000202434E060EB
:103320002760207C20EA0800207484F81190207C1B
:10333000243C00F0080068B994F83A000E49097876
:1033400008430D4908700D48805D94F83910084312
:103350000A4988552946204600F012F8206A20B113
:103360002046216A00F021F8E5615046BDE8F08F63
:10337000146A0000340700103500001036000010F9
:1033800010B590F8382001F10B039B5C90F83940A0
:10339000A34301F10B04A35423469B5C23B98B7A0E
:1033A00090F83A40A3438B7210BDF0B5024612F874
:1033B000384F95785678383A0B4618680FE000F188
:1033C0000B073F5DB74300F10B0C0CF80470674628
:1033D0003F5D17B9877AAF4387721B1D18680028B5
:1033E000EDD1F0BD10B51B4A1268D061194A1268C0
:1033F00092F8383000F10B02D25C164B1B6893F840
:1034000039301A43134B1B6893F8384000F10B0313
:103410001A55827A0F4B1B6893F83A301A4382721E
:103420000C4A126892F838100B4A525C094B1B6820
:1034300093F839309A43084B5A541A46525C42B9B1
:10344000044A126892F83A30044A12789A43034BBD
:103450001A7010BD44000010360000103500001036
:10346000014600228A72002005E0002301F10B02D0
:103470001354421CD0B20828F7D370472DE9F0410D
:103480005021114800F032F900250DE0681C86B289
:103490000D4800EB051400EB061700202070676054
:1034A0000AA0E060681C85B2042DEFD3064800EB4B
:1034B000051400202070606004A0E0600248044908
:1034C0000860BDE8F0810000E40200103F00000049
:1034D0002000001070B5F021134800F007F9002417
:1034E00011E0601C85B204EB44000F4901EBC003FE
:1034F00005EB450001EBC006002018705E600BA0D4
:103500005861601C84B2092CEBD304EB44000649DB
:1035100001EBC00300201870586004A058610846F1
:103520000349086070BD0000F40100103F00000076
:103530001C00001000200A4908600A4908700A4966
:1035400008700A4908700A4908700A4908600A495F
:1035500008600A4908600A4908600A49087070470B
:103560006000001031000010320000103F00001019
:103570003E00001018000010400000102C00001049
:10358000280000103000001000210A4A11700020AD
:1035900004E00021084A1154411CC8B20828F8D39D
:1035A0000021064A1170064A1170064A1160064A47
:1035B0001160704735000010360000103300001015
:1035C000340000104C0000104400001070B54FF49F
:1035D000F261194800F08AF84FF48071174800F042
:1035E00085F8002413E0601CC5B204EB440000EB36
:1035F000C400114901EBC00305EB450000EBC50019
:1036000001EBC0065E610EA01865601CC4B2152CEB
:10361000E9D304EB440000EBC400074901EBC0030D
:103620000020586106A0186500200649086002487D
:103630000549086070BD0000340800103407001010
:103640003F000000500000104800001000B587B097
:103650000320002180220A4BCDE90132CDE903107D
:103660004FF6FF703F23074A00900748FFF7AAFA7A
:1036700006AA06A13F20FFF7F9FA07B000BD000037
:1036800034050010300700106D39000075432F4FCE
:10369000532D49492049646C6500000000B587B08E
:1036A0000320002180220A4BCDE90132CDE903102D
:1036B0004FF6FE703E23074A00900748FFF782FA54
:1036C00006AA06A13E20FFF7D1FA07B000BD000010
:1036D00034030010300500108D39000075432F4F62
:1036E000532D4949205374617400000004E0002206
:1036F00000F8012B4A1E91B20029F8D17047000052
:1037000070B578211148FFF7F1FF00240EE004EBBB
:1037100044000E4901EBC005601C00EB400001EBCA
:10372000C00068600AA06861601C84B2042CEED3FB
:1037300004EB4400054901EBC0050020686004A0CB
:10374000686108460349086070BD0000C40F00109E
:103750003F000000580000102DE9F04160211048A2
:10376000FFF7C4FF00240DE0601C86B204EB4400A8
:103770000B4901EBC00506EB460001EBC0072F60CB
:10378000601C84B2032CEFD304EB4400044901EB2A
:10379000C00500202860084602490860BDE8F081A5
:1037A0003C1000105C00001010B5FCF707FF134838
:1037B0000078F8B912480078E0B900F02DF8114807
:1037C0001149097850F82100104908600E48007826
:1037D0000F49097888420DD00C480068C06B401C26
:1037E0000A490968C8630B480068401C0949086019
:1037F000FCF70CFFFCF7EBFE10BD000031000010E1
:103800003200001034070010340000104C0000108B
:1038100033000010180000100649074A1278885C2F
:103820000649095C034A515C01EBC001044A11706E
:1038300070470000146A00003500001036000010C8
:10384000340000102DE9F05F05460F46904699467A
:10385000DDE90AABFCF7B2FE3D480468002C72D0EB
:103860001C3454F8080C3A490860FCF7B0FE44F8E0
:103870001C7CA576002020766076606144F818BC38
:1038800044F810AC44F8148C0C9824F80C0C24F870
:103890000A9C0020E077E810207705F00700E0762A
:1038A000217F01208840A077E17E01208840607759
:1038B000002020606060E060A0602062A062606222
:1038C000E062206323A060631C3C002606E0002128
:1038D00004F1540040F82610701CC6B2002EF6D039
:1038E0002046FCF70AFD2046FFF7BEF9FCF766FE0E
:1038F000194840F825401948006860610020A0611F
:103900001648006810B115480068846113480460C7
:103910003834A07812490978084311490870207892
:103920001049085C6178084314F838190D4A50545E
:103930000D480078401C0C490870FCF748FE002038
:10394000BDE8F09FFFE7FCF742FE4220F8E70000E9
:10395000480000103F000000340700105000001025
:1039600035000010360000103F00001000BF00BFFF
:10397000FCF724FE04480068401C03490860FCF77B
:1039800026FEFFF772F9F3E74000001000BF02E0E7
:10399000C820FFF77DFA194800780028F8D01848A9
:1039A00000686421B0FBF1F0154908600846006822
:1039B00028B9002013490870FF20FFF719FA00BF4B
:1039C000FCF7FCFD104800681049086000200E4913
:1039D0000860FCF7FCFD0D48006809490968B0FB68
:1039E000F1F0C0F1640007490870FFF771F900F0C9
:1039F0000FF86420FFF74CFAE2E7000030000010F7
:103A00002800001024000010400000102C000010BE
:103A10007CB5002514E069462846FFF75BF90646A9
:103A200066B9094850F8254044B1012C06D0D4E9C4
:103A3000020100EB8100A0640198E064681CC5B23B
:103A40003F2DE8D97CBD00003407001002F00103CF
:103A500043B102F002032BB102E0491E002308C06B
:103A60000029FAD170470FB42DE9F84300BF0027B1
:103A7000B846B946002409A80090089C62E0207866
:103A800025285BD1601C04460078642820D00CDC1B
:103A9000582844D004DC252848D042284AD136E0B2
:103AA000622833D0632845D108E0662818D06928F9
:103AB0000FD0732822D078283CD12FE0009810F83E
:103AC000041B01F0FF090090484600F05DF832E069
:103AD00000BF009880C80090384600F05BF82AE0EC
:103AE0000098C01D20F007000090D0E90056083073
:103AF00000902846314600F063F81CE0009850F82A
:103B0000048B0090404600F0B3F814E000BF00982A
:103B100080C80090384600F01DF80CE000BF009807
:103B200080C80090384600F079F804E0252000F0C5
:103B30002BF800E000BF00BF641C03E014F8010B89
:103B400000F022F82078002899D10090BDE8F80311
:103B50005DF814FB70B504461CB90AA000F088F8A3
:103B600070BD254604EBD5714810FFF7F3FF04EB59
:103B7000D5714910A4EB41013031C8B200F004F80E
:103B800000BFEDE73062000010B50446204601F0AA
:103B9000CFF810BD70B5044604B970BD0A2094FB7F
:103BA000F0F52846FFF7F6FF0A2094FBF0F100FB42
:103BB00011403030C5B22846FFF7E6FF00BFECE702
:103BC0002DE9F04704460D464FF000090026204637
:103BD0002946FCF707FC06463046FFF7DBFF2E20A0
:103BE000FFF7D2FF3046FCF774FB074622462B4610
:103BF000FCF76CFB04460D460022074B2046294685
:103C0000FCF77EFB0746FCF7EDFB06463046FFF768
:103C1000C1FFBDE8F087000080842E4170B50446E6
:103C20001CB912A000F024F870BD2546E11704EB82
:103C300011710811FFF7F2FF0A2C0ADAE11704EB01
:103C400011710911A4EB01113031C8B2FFF79CFFCB
:103C50000AE02546E11704EB11710911A4EB0111EB
:103C60005731C8B2FFF790FF00BFDDE730780000A2
:103C700010B5044603E014F8010BFFF785FF207828
:103C80000028F8D110BD000008B50246094800EB35
:103C9000823108680090009820F0010000900098A0
:103CA000086008680090009800F0010080F00100B2
:103CB00008BD00000040044030B501462E480068B1
:103CC00040F400702C4AC43AC2F8C4002B48007873
:103CD00000F0100038B12948007840F01000274A61
:103CE0005C3A82F85C000020244A5C3A107203209F
:103CF000107001201073FF201074C88890874879D5
:103D00001E4A243A1070C8781C4A303A107008795C
:103D1000121D10708878194A343A10704878121FB2
:103D200010700878121F10700120144A5C3A10734A
:103D300011200122824043099B0003F1E023C3F8D4
:103D4000002100BF1222002807DAD3061D0E0C4BFB
:103D500000F00F04241F1D5503E0D3061C0E094B71
:103D60001C5400BF0120054A5C3A107303201070F8
:103D70000120107230BD0000C4C00F405C40024002
:103D800018ED00E000E400E0484840694849086058
:103D9000464880694749086008460068C0F30B4000
:103DA0004549C88043480088C0F303204871414812
:103DB000007800F01F00C8703D480068C0F3026042
:103DC00008713B480068C0F3044088703848008898
:103DD000C0F3052048703648007800F03F000870B6
:103DE0000120324908703549087035480088401C68
:103DF0003349088033480088401C324908803248E3
:103E00000088401C3049088030480088401C2F49F9
:103E100008802F4908780978491C2D4A117000EB59
:103E2000D0714910A0EB410159B12A48006840F413
:103E30008050284908600846806940F480508861B5
:103E40000AE02448006840F480502249086008468F
:103E5000C06940F48050C8611F488079012805D1AD
:103E60001E480068401C1D49086002E000201B49F4
:103E700008601948807A012804D119480068401C5C
:103E800017490860164800683C21B0FBF1F0124960
:103E90008989884208D31048807A012804D11148C2
:103EA000C07A401C0F49C8727047000000400240B1
:103EB000D4010010D8010010DC010010C001001076
:103EC000C2010010C4010010C6010010C80100109A
:103ED000E4010010008009206C3C0010CC010010AF
:103EE000D00100107C3C00100020024908700249FB
:103EF00008707047460100104701001010B50A20F5
:103F0000FEF7C6FF1E21F848FCF731F9002433E222
:103F1000F648005D5A287CD1F449601C085CA5284D
:103F2000F9D1E01C085C8328F5D10846005DEE4914
:103F3000C91F0870ED49601C085CEB49C91F487037
:103F4000EA49A01C085CE849C91F8870E749E01CE1
:103F5000085CE549C91FC870E449201D085CE249B6
:103F6000C91F8880084680884FF6FF7101EA00204B
:103F7000DD49C91F888008468188DC4A601D105CC5
:103F80000844D949C91F88801146A01D085CD6493C
:103F9000C91F8871084680794200D44BE01D19186A
:103FA000D148FCF7CBF8D048C01F808800F00F0143
:103FB000002973D10011403831286FD2DFE800F0BA
:103FC00019324048665E6FADF4F36E6E6E6E6E6EC3
:103FD0006E6E6EF2F1F0EFEEED6E6E6E6E6E6E6EF8
:103FE000ECEB8499C0D3F5E9E8E76E6E6E6E6E6E09
:103FF000E60000220321BC48FCF754FBBC49488280
:104000000846408A40F2EE21884206DCB848408AE1
:1040100000E0AFE1B0F5AF7F03DA4FF4E170B449EF
:10402000488298E100220321AF48FCF73BFBB049EE
:1040300088820846808AFA2801DBFA2088828AE191
:1040400000220221A848FCF72DFBA949C87282E191
:1040500000220321A448FCF725FBA5490882084655
:10406000008A40F2EE21884203DCA148008AC82879
:1040700003DA40F245109E4908826CE100220121DA
:104080009948FCF70FFB9A49487264E1002201212C
:104090009548FCF707FB964988725CE15AE10022DB
:1040A00003219148FCF7FEFA914948830846408B6A
:1040B000B0F5FA7F03DC0846408B642803DA4FF43E
:1040C000B4708B49488346E1002203218648FCF7FF
:1040D000E9FA8749C8820846C08AB0F5FA7F03DC4E
:1040E0000846C08A642803DA4FF4D2708049C88237
:1040F00031E1002203217C48FCF7D4FA7C49088393
:104100000846008BB0F5FA7F03DC0846008B642874
:1041100002DAF020764908831DE10022022172486C
:10412000FCF7C0FA724988770846807F632803DC71
:104130000846807F012802DA19206D4988770AE154
:10414000002202216848FCF7ADFA69490877084661
:10415000007F632803DC0846007F012802DA46203E
:1041600063490877F7E0002202215F48FCF79AFADA
:104170005F4948770846407F632803DC0846407F54
:10418000012802DA01205A494877E4E0CCE0B5E0A2
:104190008DE0C3E009E074E06BE0BBE0B6E09EE0D8
:1041A00099E053E03CE037E012E0002202214E4863
:1041B000FCF778FA4E4908720846007A1E2803DC9C
:1041C0000846007A0A2802DA0B2049490872C2E040
:1041D000002047490860C8774648006A40F0805090
:1041E000444908620846C06B40F08050C8630846E6
:1041F000006840F0010008600846C06940F0010016
:10420000C8610846006840F0020008600846C069BE
:1042100040F00200C8619EE001203549C8779AE06D
:10422000002203213048FCF73DFA314988810846D5
:10423000808940F2EE21884203DC2D488089C8281D
:1042400003DA4FF4FA702A49888184E000220321BE
:104250002548FCF727FA2649C8810846C089FA286C
:1042600003DC0846C0890A2802DAFA202049C881FE
:1042700071E0002203211C48FCF714FA1C498880D5
:1042800069E0002203211848FCF70CFA1849C8809D
:104290000846C08840F2EE21884203DC1448C088FA
:1042A000C82803DA4FF4FA701149C88053E000229D
:1042B00003210D48FCF7F6F90F49088108460089EB
:1042C000B0F5167F03DC08460089012802DA0520D4
:1042D000094908813FE00120074988713BE000203F
:1042E0000549887137E00000B73C0010AC4D001064
:1042F0007C3C0010008009206C3C00100022022150
:104300002148FCF7CFF92149888124E001201F4989
:10431000887220E000201D4988721CE00C221B4995
:104320001948FCF73BFA16E0112217491848FBF729
:1043300005FF00240BE01648005D3D2805DB14480E
:10434000005D2038C1B212480155601CC4B2112C66
:10435000F1DB00E000BF00BF00F0DEFD34220021F1
:104360000B482038FDF7FCFD102242F248010748B7
:10437000FDF7F6FD601CC4B206480068401C84428C
:10438000FFF4C6AD10BD0000B73C00106C3C00103F
:104390009C3C0010700100102DE9F04780460D464E
:1043A0002621404600F0C8F8064616B90020BDE8B0
:1043B000F087B6F5806F01D94FF48066282140461A
:1043C00000F0BAF80746B946C7F30A073E48006A44
:1043D00040F480703C4908620846C06B40F480702D
:1043E000C8630520FEF717F9380AFDF73BFDF8B260
:1043F000FDF738FD182101EB4811C8B2FDF732FD79
:10440000B819B0F5006F09D2002404E0FDF724FDCF
:1044100005F8010B641CB442F8D33AE0C7F5006715
:10442000002404E0FDF718FD05F8010B641CBC42F4
:10443000F8D32548006A40F4807023490862084692
:10444000806B40F4807088630520FEF7E4F81E4816
:10445000006A40F480701C4908620846C06B40F452
:104460008070C8630520FEF7D6F80020FDF7FAFC3F
:104470000020FDF7F7FC182101EB4811C8B2FDF749
:10448000F1FC04E0FDF7E8FC05F8010B641CB44204
:10449000F8D30D48006A40F480700B490862084662
:1044A000806B40F4807088630520FEF7B4F8B14457
:1044B0004A462821404601F0CBFC402201214046DB
:1044C00001F090FC304672E70080092070B5044688
:1044D0000D4600261748006A40F4807015490862AE
:1044E0000846C06B40F48070C8630520FEF793F85F
:1044F000C5F30720FDF7B6FCE8B2FDF7B3FC0821D1
:1045000001EB4411C9B241F00100FDF7ABFCFDF72E
:10451000A3FC06460748006A40F48070054908621B
:104520000846806B40F4807088630520FEF773F8BE
:10453000304670BD008009202DE9F04104460D464B
:104540001A48006A40F48070184908620846C06B37
:1045500040F48070C8630520FEF75DF8C5F30720BE
:10456000FDF780FCE8B2FDF77DFC082101EB44116A
:10457000C9B241F00200FDF775FCFDF76DFC07467E
:104580003E02FDF769FC07463E440848006A40F4D5
:104590008070064908620846806B40F4807088632A
:1045A0000520FEF738F83046BDE8F081008009208C
:1045B00070B5054602212846FFF788FF044624B15E
:1045C00022460221284601F00DFC204670BD000065
:1045D00070B504461A48006A40F4807018490862B1
:1045E0000846C06B40F48070C8630520FEF713F8DE
:1045F0002546E11704EB1161C1F30720FDF732FCFA
:10460000E11704EB11610912A4EB0121C8B2FDF717
:1046100029FC0120FDF726FCFDF71EFC0646084894
:10462000006A40F48070064908620846806B40F4D6
:10463000807088630520FDF7EEFF304670BD0000F6
:104640000080092010B51648007800B910BD154843
:10465000007801281DD1002001F070FA00201249D5
:1046600008800FE0114B93F84020114B1B880E4C33
:1046700024881B1B99B20F4B0B4C24881819FDF78B
:104680008DFA05E008480088094909888842E9DB75
:1046900000BF04480078022800D1D7E700BFD5E763
:1046A0004601001044010010580100104045001060
:1046B000380100102C41001000201A49096841F40B
:1046C0000011184AC43AC2F8C4101649E431096806
:1046D000C8B21549C96B21F00701134AD1631146CD
:1046E000C96B41F00201D1631146496C21F0070109
:1046F00051641146496C41F0020151641146896CC4
:1047000021F0070191641146896C41F00201916426
:1047100040F60701054A116008211161022151602C
:1047200070470000C4C00F4000C002400080084035
:1047300002E012498968C8B21049C96801F0040151
:104740000429F6D000BF0D49C96801F00101002914
:10475000F9D0FF21094A916000BF0849C96801F0FA
:1047600010011029F9D000BF0449C96801F0040103
:104770000029F9D001498968C8B270470080084013
:1047800000BF0849C96801F001010029F9D00549B5
:10479000886000BF0349C96801F010011029F9D0F1
:1047A000704700000080084000202049096841F45B
:1047B00080111E4AC43AC2F8C4101C49E431096889
:1047C000C8B21B49D1F8801021F00701184AC2F87D
:1047D00080101146D1F8801041F00401C2F8801019
:1047E0001146D1F8841021F00701C2F88410114657
:1047F000D1F8841041F00401C2F884101146D1F8B8
:10480000901021F00701C2F890101146D1F89010D5
:1048100041F00401064A9032116040F60701054A52
:10482000116008211161022151607047C4C00F401E
:1048300000C0024000C00A4002E012498968C8B2C4
:104840001049C96801F004010429F6D000BF0D49E0
:10485000C96801F001010029F9D0FF21094A9160DE
:1048600000BF0849C96801F010011029F9D000BF44
:104870000449C96801F004010029F9D00149896897
:10488000C8B2704700C00A4000BF0849C96801F0BB
:1048900001010029F9D00549886000BF0349C968B2
:1048A00001F010011029F9D07047000000C00A4043
:1048B00010B51548007810B11448007800B910BD43
:1048C0001348007801281CD1124800880F2190FB62
:1048D000F1F201FB1200A0B90121682000F036FFBF
:1048E000C823002211461046FEF70CFB012166206A
:1048F00000F02CFF4FF44873002211461046FEF7DB
:1049000001FB00BFDBE7000047010010460100107B
:1049100044010010C201001010B50446012200211C
:10492000204601F05FFA01221146204601F05AFAB2
:104930000A20FEF7ADFA03212046FFF7C7FD132832
:1049400006D010220121204601F04CFA002010BDB3
:1049500004220121204601F045FA0120F7E700007A
:1049600010B504461148006802190421204601F0E0
:104970006FFA0F4A0C21204601F0A4FA0D481021CD
:104980000268204601F064FA40F2B4521221204637
:1049900001F05EFA02221E21204601F023FA0222D3
:1049A0001F21204601F01EFA10BD0000100100106A
:1049B000140100101801001010B531203A49887117
:1049C00031213948C17138210172302141723521BC
:1049D00081723121C1723F21017330214173817392
:1049E0003521C1730A2404E000212F48801D0155A0
:1049F000641C202CF8DB42F210702B494880012007
:104A000081F848001421284880F84910A82180F82E
:104A10004A10C02180F84B105820234981F84C00DF
:104A20001421214880F84D10A82180F84E10C02193
:104A300080F84F1042F228301B49A1F850000020A6
:104A400081F85200FF21184880F8531080F8541064
:104A500080F855100020144981F8560010211248A2
:104A600080F8571080F8581080F8591080F85A10C4
:104A700080F85B10FE200C4981F8410014210A489F
:104A800080F84210A82180F84310C02180F844101B
:104A90004FF4E1600449A1F846006C2241F2240180
:104AA0000148FDF75DFA10BD4045001021202E4958
:104AB000086000BF2C48006800F040000028F9D0D2
:104AC000012029499439086009202849C1F8840047
:104AD0000120264980310860AA2024498C310860D1
:104AE0005520086000BF21488830006800F48060CD
:104AF0000028F8D023201D49A431086001201B495B
:104B0000C1F8A000AA201949AC3108605520174906
:104B1000C1F8AC0000BF1548A830006800F4806000
:104B20000028F8D040F201100F499C39086040F28B
:104B300001200E49C1F8080101200B49A039086085
:104B4000022009490831086009480849C431086051
:104B5000881505492831086045F23A000349086084
:104B60000020044908607047A0C10F4000C00F40FA
:104B7000DE87280408ED00E010B534220021084843
:104B8000FDF78EF96C2241F224010648FDF788F901
:104B9000102242F248010448FDF782F910BD0000DE
:104BA0007C3C0010404500106C3C001001204FF090
:104BB0004021086011480078401C104908700878AE
:104BC00000EBD0714910A0EB410159B90C480068C5
:104BD00040F000600A4908600846806940F00060C3
:104BE00088610AE00648006840F0006004490860F7
:104BF0000846C06940F00060C8617047E5010010D8
:104C00000080092010B51A48006840F002001849D9
:104C1000C439C1F8C40002204FF04021486001208F
:104C20000860002008678860C86012488861032017
:104C300048610120012181404209920002F1E022F5
:104C4000C2F8001100BF0321002807DACA06140EBB
:104C5000094A00F00F031B1FD45403E0CA06130EC9
:104C6000064A135400BF01204FF04021486010BD98
:104C7000C4C00F40009F240018ED00E000E400E0F5
:104C800010B51B48006840F008001949C439C1F844
:104C9000C4001848806820F007001649886008465C
:104CA000806840F0010088600846C06820F0070076
:104CB000C8600846C06840F00100C86083200E4903
:104CC00008730E48006800094FF4E131B0FBF1F4BD
:104CD000200A094908710C700320087387200872A4
:104CE0000520FDF78DFC07200349486010BD00003A
:104CF000C4C00F4000C0024000C0004004000010CB
:104D000010B50848007810B90748006848B100207D
:104D100004490870044908604FF480610348FBF7B8
:104D200026FA10BD6801001060010010AC450010AB
:104D30000449087000BF0349097D01F020010029E2
:104D4000F9D0704700C0004070B500BF4848806887
:104D5000C4B2641004F00704032C36D14448057D26
:104D600005F09E0010B14248067870BD05F00100C4
:104D700000287BD000203F49086017E03D480068CC
:104D80003D4909680844B0F5806F01D3FFF7B8FFCB
:104D90003748007837490968374A12681144374A5A
:104DA000505434480068401C32490860314800685B
:104DB0000828E3D3304800682E49096808442E4982
:104DC000086001202E49087050E0022C2AD10020F2
:104DD0002849086017E027480068274909680844FF
:104DE000B0F5806F01D3FFF78BFF21480178214890
:104DF0000068214A12681044204A11541D48006876
:104E0000401C1C4908601B4800680828E3D31A4866
:104E100000681849096808441749086001201849C2
:104E2000087023E0062C1CD111E013480068B0F58F
:104E3000806F01D3FFF764FF0D4800780F490E4AD9
:104E4000126888540C480068401C0B4908600848E8
:104E5000007D00F001000028E7D10120084908701A
:104E600004E0012C02D10248057D00BF00BF7CE7B1
:104E700000C000405C01001060010010AC45001053
:104E80006801001010B51F48006840F010001D496F
:104E9000C439C1F8C4001C48D0F8000120F0070054
:104EA0001949C1F800010846D0F8000140F002009D
:104EB000C1F800010846D0F8040120F00700C1F84D
:104EC00004010846D0F8040140F002000F490860D0
:104ED00083200F4908730F48006800094FF4E1313F
:104EE000B0FBF1F4200A0A4908710C700320087322
:104EF000872008720620FDF783FB072004494860DD
:104F000010BD0000C4C00F4000C0024004C10240F8
:104F1000000001400400001010B50848007810B9E6
:104F20000748006848B10020044908700449086037
:104F30004FF480610348FBF71AF910BD78010010A7
:104F400070010010AC4D00100449087000BF034907
:104F5000097D01F020010029F9D0704700000140CF
:104F600030B502460B46002404E012F8010BFFF7AF
:104F7000EBFF641C9C42F8D330BD000070B500BF4D
:104F800048488068C4B2641004F00704032C36D18A
:104F90004448057D05F09E0010B14248067870BD7A
:104FA00005F0010000287BD000203F49086017E091
:104FB0003D4800683D4909680844B0F5806F01D359
:104FC000FFF7AAFF3748007837490968374A12685F
:104FD0001144374A505434480068401C3249086034
:104FE000314800680828E3D3304800682E49096832
:104FF00008442E49086001202E49087050E0022C18
:105000002AD100202849086017E02748006827496E
:1050100009680844B0F5806F01D3FFF77DFF214890
:10502000017821480068214A12681044204A11542E
:105030001D480068401C1C4908601B48006808287F
:10504000E3D31A48006818490968084417490860FA
:1050500001201849087023E0062C1CD111E01348E8
:105060000068B0F5806F01D3FFF756FF0D48007858
:105070000F490E4A126888540C480068401C0B49BE
:1050800008600848007D00F001000028E7D10120F9
:105090000849087004E0012C02D10248057D00BFD8
:1050A00000BF7CE7000001406C010010700100109F
:1050B000AC4D00107801001010B52248006840F097
:1050C00080702049C439C1F8C4001F48806A20F0AC
:1050D00007001D4988620846806A40F00100886226
:1050E0000846C06A20F00700C8620846C06A40F05F
:1050F0000100C8629B201549087315480068000923
:105100004FF41661B0FBF1F4200A104908710C70DD
:105110001B200873872008720720FDF771FA07200B
:105120000A4948600B48D0F8800040F0080009495F
:10513000C1F880000846D0F8980040F00800C1F897
:10514000980010BDC4C00F4000C00240008009405C
:10515000040000100080092010B50848007810B93C
:105160000748006848B100200449087004490860F5
:105170004FF480610348FAF7FAFF10BD8801001070
:1051800080010010AC5500100449087000BF0349AD
:10519000097D01F020010029F9D070470080094005
:1051A00070B504460D461748006840F008001549E0
:1051B0008039C1F880000846D0F89C0040F0080013
:1051C000C1F89C00002604E014F8010BFFF7DCFF97
:1051D000761CAE42F8D30A23002211461046FDF792
:1051E00091FE0848006840F0080006498039C1F87F
:1051F00080000846D0F8980040F00800C1F89800F8
:1052000070BD00008080092070B500BF48488068EC
:10521000C4B2641004F00704032C36D14448057D61
:1052200005F09E0010B14248067870BD05F00100FF
:1052300000287BD000203F49086017E03D48006807
:105240003D4909680844B0F5806F01D3FFF784FF3A
:105250003748007837490968374A12681144374A95
:10526000505434480068401C324908603148006896
:105270000828E3D3304800682E49096808442E49BD
:10528000086001202E49087050E0022C2AD100202D
:105290002849086017E0274800682749096808443A
:1052A000B0F5806F01D3FFF757FF214801782148FF
:1052B0000068214A12681044204A11541D480068B1
:1052C000401C1C4908601B4800680828E3D31A48A2
:1052D00000681849096808441749086001201849FE
:1052E000087023E0062C1CD111E013480068B0F5CB
:1052F000806F01D3FFF730FF0D4800780F490E4A49
:10530000126888540C480068401C0B490860084823
:10531000007D00F001000028E7D101200849087055
:1053200004E0012C02D10248057D00BF00BF7CE7EC
:10533000008009407C01001080010010AC55001075
:105340008801001010B51F48006840F000701D492A
:10535000C439C1F8C4001C48D0F8700220F007001E
:105360001949C1F870020846D0F8700240F00200F6
:10537000C1F870020846D0F8740220F00700C1F8A6
:1053800074020846D0F8740240F002000F49086029
:1053900083200F4908730F48006800094FF4E1317A
:1053A000B0FBF1F4200A0A4908710C70032008735D
:1053B000872008720820FDF723F907200449486078
:1053C00010BD0000C4C00F4000C0024074C20240C3
:1053D00000C009400400001010B50848007810B95A
:1053E0000748006848B10020044908700449086073
:1053F0004FF480610348FAF7BAFE10BD980100101F
:1054000090010010AC5D001070B500BF4848806886
:10541000C4B2641004F00704032C36D14448057D5F
:1054200005F09E0010B14248067870BD05F00100FD
:1054300000287BD000203F49086017E03D48006805
:105440003D4909680844B0F5806F01D3FFF7C4FFF8
:105450003748007837490968374A12681144374A93
:10546000505434480068401C324908603148006894
:105470000828E3D3304800682E49096808442E49BB
:10548000086001202E49087050E0022C2AD100202B
:105490002849086017E02748006827490968084438
:1054A000B0F5806F01D3FFF797FF214801782148BD
:1054B0000068214A12681044204A11541D480068AF
:1054C000401C1C4908601B4800680828E3D31A48A0
:1054D00000681849096808441749086001201849FC
:1054E000087023E0062C1CD111E013480068B0F5C9
:1054F000806F01D3FFF770FF0D4800780F490E4A07
:10550000126888540C480068401C0B490860084821
:10551000007D00F001000028E7D101200849087053
:1055200004E0012C02D10248057D00BF00BF7CE7EA
:1055300000C009408C01001090010010AC5D00100B
:105540009801001010B51F48006840F480701D4994
:10555000C439C1F8C4001C48D0F88C0220F0070000
:105560001949C1F88C020846D0F88C0240F00400BA
:10557000C1F88C020846D0F8900220F00700C1F86C
:1055800090020846D0F8900240F004000F490860ED
:1055900083200F49C8600F48006800094FF4165176
:1055A000B0FBF1F4200A0A494860E0B20860032029
:1055B000C860872088602320FDF722F8072004496F
:1055C000486010BDC4C00F4000C0024090C20240FD
:1055D00000400A400400001010B50848007810B9D7
:1055E0000748006848B10020044908700449086071
:1055F0004FF480610348FAF7BAFD10BDA80100100E
:10560000A0010010AC65001070B500BF4A4880686A
:10561000C4B2641004F00704032C38D14648406932
:10562000C5B205F09E0018B143480068C6B270BD0F
:1056300005F0010000287DD000204049086017E0F7
:105640003E4800683E4909680844B0F5806F01D3C0
:10565000FFF7C2FF3848006838490968384A1268BD
:105660001144384A505435480068401C334908609A
:10567000324800680828E3D3314800682F49096898
:1056800008442F49086001202F49087052E0022C7D
:105690002BD100202949086018E0284800682849D3
:1056A00009680844B0F5806F01D3FFF795FF2248E1
:1056B0000068C1B221480068214A12681044214A9A
:1056C00011541E480068401C1C4908601B480068B3
:1056D0000828E2D31A48006818490968084418499C
:1056E000086001201849087024E0062C1CD111E044
:1056F00013480068B0F5806F01D3FFF76DFF0E48C7
:10570000006810490E4A126888540D480068401C11
:105710000B4908600848406900F001000028E7D103
:1057200001200949087005E0012C03D102484069B5
:10573000C5B200BF00BF7AE700400A409C010010DC
:10574000A0010010AC650010A8010010F0B5CBB0AE
:1057500006460F46AA206B490870F52048700020C5
:1057600048801020087168480078487166480078C1
:10577000401C654908706348C680682E48D00EDC1E
:10578000082E30D006DC022E18D0042E1DD0062E96
:105790006FD121E00A2E2DD0662E6AD131E0CA2EBB
:1057A00052D006DC6A2E3AD06C2E3FD06E2E60D1DD
:1057B00043E0CC2E4FD0CE2E5BD153E0394651483A
:1057C000083000F00AFC044655E039464D480830E0
:1057D00000F006FC04464EE039464A48083000F026
:1057E00003FC044647E039464648083000F028FCF0
:1057F000044640E039464348083000F0ACFE044619
:1058000039E039463F48083000F04AFC044632E0AF
:1058100039463C48083000F083FC04462BE039460A
:105820003848083000F088FD044624E03946354801
:10583000083000F08CFE04461DE03946314808303F
:1058400000F08CFE044600BF39462E48083000F0B8
:105850008BFE04460FE039462A48083000F059FF15
:10586000044600BF39462748083000F056FF04467A
:1058700000BF002400BF00BF0CB94BB0F0BD04F165
:105880000900204948800A46D088C21700EB1262FE
:105890001212A0EB02220B465B791A440B46D98800
:1058A000CB1701EB136302EB2322164B83F808217D
:1058B00000250AE0134890F808110830405D0844BC
:1058C000104981F80801681C85B2A542F2DB0D4839
:1058D00090F808010B4981F8080108464088421EEB
:1058E0006846FAF72BFC074890F808114088401EDC
:1058F0000DF80010034881783A466846FCF732FDFF
:1059000000BFBAE72C430010450100103EB500204F
:105910000090019002904F48006A40F480704D4919
:1059200008620846C06B40F48070C8634948803004
:10593000006840F48060C1F880000846D0F89C0000
:1059400040F48060C1F89C00C820FDF7A1FA4148EE
:10595000D0F8800040F480603E49C1F880000846DD
:10596000D0F8980040F48060C1F89800C820FDF796
:105970008FFA8021002000F0E7FA00BFC820FDF771
:1059800087FA2E20FEF724FE044604F001000028CA
:10599000F4D0002406E0304A115D601C00F0D4FA17
:1059A000601CC4B2042CF6DB002406E02B4A115D17
:1059B000601D00F0C9FA601CC4B2042CF6DB0024A0
:1059C00007E0274A115D04F1090000F0BDFA601CF0
:1059D000C4B2062CF5DB002407E0224A115D04F175
:1059E0000F0000F0B1FA601CC4B2042CF5DB4FF4D8
:1059F0007A70FDF74DFA002407E004F10F00FEF77E
:105A0000E7FD0DF80400601CC4B2042CF5DB002493
:105A100006E0601DFEF7DCFD0DF80400601CC4B25A
:105A2000042CF6DB002406E0601CFEF7D1FD0DF827
:105A30000400601CC4B2042CF6DB002407E004F16F
:105A40000900FEF7C5FD0DF80400601CC4B2062C69
:105A5000F5DB3EBD00800920FC00001000010010B5
:105A6000040100100A01001070B5FEF7A5FF002424
:105A7000032507E02848405D28490855601CC4B24A
:105A8000681EC5B2042CF5DB0024032508E022487B
:105A90000A30405D22490855601CC4B2681EC5B278
:105AA000042CF4DB0024052508E01B480E30405D83
:105AB0001C490855601CC4B2681EC5B2062CF4DB34
:105AC0000024032508E01448001D405D16490855D0
:105AD000601CC4B2681EC5B2042CF4DB0E48483802
