:020000040000FA
:1000000050710010F9000000010100000301000020
:1000100005010000070100000901000000000000C8
:100020000000000000000000000000000B010000C4
:100030000D010000000000002B060000B56000006C
:100040000F010000754300000F0100000F010000C8
:100050000F0100001145000045470000D149000094
:10006000D14B00000F0100000F0100000F01000044
:100070000F0100000F0100000F0100000F01000040
:100080000F010000C53800000F0100000F01000043
:100090000F0100000F0100000F0100000F01000020
:1000A0000F010000751200000F0100000F01000099
:1000B0000F0100000F0100000F0100000F01000000
:1000C0000F0100000F0100000F010000D14D0000E2
:1000D0000F0100000F0100000F0100000F010000E0
:1000E0000F010000DFF80CD000F02AFA00480047AA
:1000F000795F0000507100100548804705480047AF
:10010000FEE7FEE7FEE7FEE7FEE7FEE7FEE7FEE7C7
:1001100085420000E50000000649074A0868504390
:1001200043F23902104408604008704701490860F2
:10013000704700006C0100106D4EC64140EA01039B
:100140009B0703D009E008C9121F08C0042AFAD28D
:1001500003E011F8013B00F8013B521EF9D2704751
:10016000D2B201E000F8012B491EFBD270470022F9
:10017000F6E710B513460A4604461946FFF7F0FFA6
:10018000204610BD2DE9FE4F804681EA0300C00FD6
:100190000C46009021F0004123F00045B8EB02002E
:1001A000A94105D24046214690461C460B460246D0
:1001B00023F00040104347D0270DC7F30A00C3F3D4
:1001C0000A510290401A019040286BDAC3F31300E1
:1001D00040F4801B0098924620B10023D2EB030A22
:1001E00063EB0B0B01985946C0F14002504600F0FA
:1001F00018F906460D4650465946019A00F030F966
:1002000010EB08006141002487EA115284EAE77389
:100210001A4340D0009A62B3019A012A4FEA07526A
:1002200015DC001B61EB02014FF0004202EA0752AD
:10023000CDE90042001C41F5801132462B4600F00A
:1002400030F903B0BDE8F08F40462146F9E7001BC6
:1002500061EB0201001C41F5801300185B4120187E
:10026000A2F5001747EB030140EAD570B6196D41BE
:1002700011E06D084FEA360645EAC0754FEA0752AD
:10028000001B61EB0201001C41F5801149084FEA97
:1002900030000019514132462B4603B0BDE8F04F03
:1002A00000F0F0B80098012240000023D0EB0202D9
:1002B00063EBE073009821464FEAE074B8EB00006E
:1002C00061EB0401E9E783F000435BE781F0004163
:1002D00058E70EB5C10F80EAE0700844CA07002154
:1002E00040F233438DE80E000A460B4600F0D9F881
:1002F00003B000BD10B500F05BFE10BDFFFFFFFFB7
:100300002DE9FE4F81EA030404F0004421F000418E
:1003100000944FF0000B23F0004350EA01045ED03C
:1003200052EA03045BD0C3F30A54C1F30A552C44C8
:10033000A4F2F3340194A0FB0254C1F3130141F47D
:100340008011C3F3130343F4801301FB024400FB49
:10035000034E840A970A44EA815447EA8357A4FB70
:10036000076802958D0A05FB07854FEA932C04FB6D
:100370000C542705029D4FEA065847EA1637B5EB9D
:1003800008056EEB070C870E920E47EA811742EACA
:100390008312A7FB0201B6EB0B0164EB00042B0DEB
:1003A00043EA0C335E1844EB1C50DA465146E7FB37
:1003B0000201C5F313044FEA0B3343EA14534FEA27
:1003C0000432019C43EA0603A4F10C040294009C4D
:1003D000CDE900B400F065F803B0BDE8F08F00206F
:1003E0000146F9E770B5C1F30A5201F00045002457
:1003F000C1F3130140F2FF3341F480119A4201DA54
:10040000002070BD40F233439A42A2F2334203DC33
:10041000524200F015F800E090402C43F1D04042E9
:1004200070BD202A04DB203A00FA02F10020704758
:100430009140C2F1200320FA03F319439040704722
:10044000202A04DB203A21FA02F00021704721FA29
:1004500002F3D040C2F12002914008431946704790
:10046000202A06DBCB17203A41FA02F043EAE07378
:1004700006E041FA02F3D040C2F120029140084365
:100480001946704710B5141E73F1000408DA401CB9
:1004900041F1000192185B411A4301D120F00100A3
:1004A00010BD2DE9F04D92469B4611B1B1FA81F293
:1004B00002E0B0FA80F220329046FFF7B2FF044625
:1004C0000F4640EA0A0041EA0B0153465A460843E8
:1004D00013D0114653EA010019D0C8F1400250462A
:1004E000FFF7AEFF05460E46504659464246FFF717
:1004F00098FF084305D0012004E020463946BDE8B6
:10050000F08D0020054346EAE0762C4337430A98F5
:100510006305E40AA0EB08000022FD0A44EA475400
:100520000A3002D500200146E9E7010510196941AA
:10053000DDE9084500196941BDE8F04DA2E700007A
:10054000064C074D06E0E06840F0010394E8070020
:1005500098471034AC42F6D3FFF7C8FDBC620000E8
:10056000DC62000070B58C1810F8015B15F0070311
:1005700001D110F8013B2A1106D110F8012B03E03C
:1005800010F8016B01F8016B5B1EF9D12B0705D444
:100590000023521E0DD401F8013BFAE710F8013B8D
:1005A000CB1A921C03E013F8015B01F8015B521EA9
:1005B000F9D5A142D8D3002070BD000072B606B4B0
:1005C0002E490A7802F101020A7006BC704706B48F
:1005D0002A490A78A2F101020A704FF00001002AAC
:1005E00008BF81F3108806BC7047254C254D256057
:1005F0004FF0000484F30988234C4FF00105257067
:10060000224C4FF08055256062B6FEE730B41F4C97
:100610004FF08055256030BC704730B41B4C4FF014
:100620008055256030BC704700BFEFF3108372B671
:10063000EFF3098030B1A0F1200080E8F00F144CF6
:100640002468206000B5134880475DF804EB124C25
:10065000124D2E7826700E4C114E3668266030688A
:1006600090E8F00F00F1200080F309884EF0040EAE
:1006700083F31088704700BF72B6704710000010F7
:1006800020ED00E00000FFFF3E00001004ED00E060
:1006900044000010C929000033000010340000108D
:1006A0004C0000102DE9F04304460B460027B846E5
:1006B000B94600250026AC46082B02DD2846BDE8D9
:1006C000F08300212CE0605C302802DB605C39287C
:1006D00002DD605C2E281ED1605C2E2815D0B9F199
:1006E000000F05D04FF0000908F1010000F0FF08ED
:1006F000B8F1010F02DD4FF0FF30E0E705EB8500B8
:100700004500605C3038054408E0781CC7B28C4670
:100710004FF0010902E04FF0FF30D0E7481CC1B2B2
:100720009942D0DB012F02DD4FF0FF30C7E7BCF16B
:10073000000F0DD1002A2FDD0126002104E006EB79
:1007400086004600481CC1B29142F8DB754323E0A5
:100750000CF10100181AC3B29A420DDDD01AC2B2D0
:100760000126002104E006EB86004600481CC1B2C9
:100770009142F8DB75430FE09A420DDA981AC3B242
:100780000126002104E006EB86004600481CC1B2A9
:100790009942F8DBB5FBF6F5284690E710B501461F
:1007A0000A46C81701EB10700011A1EB00100B46B0
:1007B000CC1701EB1474241104EB840400EB440007
:1007C000C0B210BD10B500F0F1FE674840680128C6
:1007D00006D0022813D0032820D004287ED1A0E020
:1007E00061488069012809D1604800680A21B0FB8E
:1007F000F1F201FB120008B900F03EFCB1E05A48EA
:100800008069012809D1594800680A21B0FBF1F23A
:1008100001FB120008B900F02FFCA2E05348006869
:10082000FA21B0FBF1F201FB120020B900F0BEF991
:1008300000F002FC09E04D4800683221B0FBF1F203
:1008400001FB120008B900F097F8494800884649B2
:10085000498A01EB8101B0EB410F2BDA4448008853
:100860004149498A01EB8101C0EB4100C82815DCF0
:100870004048006A40F080503E4908620846C06B1C
:1008800040F08050C8630846006840F001000860EE
:100890000846806940F00100886141E03548006801
:1008A00040F00100334908600846C06940F001008B
:1008B000C86135E02E4800882B49498A01EB810147
:1008C000B0EB410F2CDD2A4800882749498A01EB0B
:1008D0008101A0EB4100642817DC00E03BE02548E3
:1008E000006A40F08050234908620846C06B40F01F
:1008F0008050C8630846006840F001000860084660
:10090000806940F0010088610AE01A48006840F000
:100910000100184908600846C06940F00100C8613C
:100920001FE011488069012809D1104800680A2198
:10093000B0FBF1F201FB120008B900F09DFB0D487D
:10094000006840F001000B4908600846C06940F0AB
:100950000100C86105E000200449086002494860C0
:1009600000BF00BF10BD0000783D001078000010EF
:100970007C0000100080092010B53E483E49086008
:100980003E48408A00EB800040F6B831B1EB400FA2
:1009900008DC3A48408A00EB800041F64C51B1EB4C
:1009A000400F05DAB820364908700B20487014E073
:1009B0003249498A01EB81014800C11700EB1161FE
:1009C0000912A0EB01212E4A11702C48408A00EB3D
:1009D0008000C0F3D710114648702848808A00EB89
:1009E00080004FF47A61A1EB4000B0F57A6F09DC2A
:1009F0002248808A00EB8000A1EB400040F2DC51ED
:100A0000884205DA80201E4988700C20C8701AE0E0
:100A10001A49898A01EB81014FF47A62A2EB410005
:100A2000C11700EB11610912A0EB0121144A91706A
:100A30001248808A00EB80004FF47A61A1EB4000FD
:100A4000000A1146C8700D48417B00208840C00054
:100A500020B10A48407B0A49087102E00220084997
:100A60000871074B044801210268052004F0D0FCFE
:100A700010BD0000F456101840010010783D001021
:100A80004401001010B50E480E49086010200E49B0
:100A900008700D204870002088700220C870FF2068
:100AA000087100204871062088710020C8710B462B
:100AB000044801210268082004F0AAFC10BD0000CF
:100AC000F456EC1C400100104401001010B5114810
:100AD00011490860012011490870772048700120F1
:100AE0008870A820C8700320087123204871022054
:100AF00088714C20C8710B46074801210268082004
:100B000004F086FC4FF4FA7300221146104601F0FF
:100B100097FF10BDF456EB1C40010010440100107B
:100B200010B51E481E49086002201E4908701D208D
:100B30004870782088701C49897B01EB810148004E
:100B4000C11700EB11610912A0EB0121154AD17008
:100B50001548807B00EB800040F3D71011460871E8
:100B60001149098A01EB81014800C11700EB1161AD
:100B70000912A0EB012151710B48008A00EB8000A3
:100B8000C0F3D71011468871FF20C8710B46044886
:100B900001210268082004F03BFC10BDF456EB1C58
:100BA0004001001044010010783D001010B50E48BF
:100BB0000E49086010200E49087009204870002076
:100BC00088700220C870FF20087100204871112031
:100BD00088710020C8710B46044801210268082072
:100BE00004F016FC10BD0000F456EC1C400100108F
:100BF0004401001010B52548254908600120254909
:100C000008702549098801EB81014800C11700EBF4
:100C100011610912A0EB01211E4A51701E48008883
:100C200000EB8000C0F3D710114688701A4949883C
:100C300001EB81014FF47A62A2EB4100C11700EB96
:100C400011610912A0EB0121124AD17012484088AB
:100C500000EB80004FF47A61A1EB4000000A1146DE
:100C6000087149204871112088710C48807BC87137
:100C70000B46074801210268082004F0C9FBFA234B
:100C800000221146104601F0DBFE10BDF456EB1CAD
:100C900040010010440100107C000010783D00105D
:100CA00010B50C480C49086002200C4908703C2023
:100CB000487000208870FF20C870087148718871E2
:100CC000C8710B46044801210268082004F0A0FB0B
:100CD00010BD0000F456EB1C400100104401001050
:100CE00010B50B480B49086000200B49087048708C
:100CF0008870C8700B46074801210268042004F080
:100D000087FBFA2300221146104601F099FE10BD20
:100D1000F4561E08400100104401001010B50848A8
:100D2000084908604C20084908701D2048700B468F
:100D3000044801210268022004F06AFB10BD000093
:100D4000F4562718400100104401001010B50E4859
:100D50000E49086010200E490870312048700020AC
:100D600088700720C870FF20087100204871022099
:100D700088710020C8710B460448012102680820D0
:100D800004F046FB10BD0000F456EC1C40010010BE
:100D90004401001010B5184818490860012018498E
:100DA000087000204870012088700020C870154825
:100DB000017B00208840400220B11248007B10498E
:100DC000087103E00F48007B0D490871F0200C49C1
:100DD00048710A2088717020C8710B4607480121AC
:100DE0000268082004F014FB052300221146104677
:100DF00001F026FE10BD0000F456EB1C400100106F
:100E000044010010783D001010B50E480E490860EE
:100E100002200E49087017204870FF208870C870A3
:100E2000087148718871C8710B4607480121026832
:100E3000082004F0EDFA052300221146104601F0C7
:100E4000FFFD10BDF456EB1C4001001044010010E2
:100E500010B50F480F49086003200F490870FF20A4
:100E600048708870C870087148718871C8710B46E5
:100E7000084801210268082004F0CAFA0A2001F09B
:100E8000A5FD052300221146104601F0D9FD10BD35
:100E9000F456EB1C400100104401001010B50E4840
:100EA0000E49086004200E490870FF2048708870C1
:100EB000C870087148718871C8710B4607480121D4
:100EC0000268082004F0A4FA052300221146104607
:100ED00001F0B6FD10BD0000F456EB1C40010010FF
:100EE0004401001010B50E480E49086005200E4957
:100EF0000870FF2048708870C87008714871887148
:100F0000C8710B46074801210268082004F080FAE6
:100F1000052300221146104601F092FD10BD00008D
:100F2000F456EB1C400100104401001010B50E48AF
:100F30000E49086006200E490870FF20487088702E
:100F4000C870087148718871C8710B460748012143
:100F50000268082004F05CFA0523002211461046BE
:100F600001F06EFD10BD0000F456EB1C40010010B6
:100F70004401001010B50B480B49086007200B49CD
:100F80000870FF2048708870C870087148718871B7
:100F9000C8710B46044801210268082004F038FAA1
:100FA00010BD0000F456EB1C40010010440100107D
:100FB00010B50A480A490860AA200A4908700B4679
:100FC000074801210268084604F022FAFA230022A9
:100FD0001146104601F034FD10BD0000F456091012
:100FE000400100104401001010B51048104908607D
:100FF0004120104908709520487001208870992080
:10100000C870012008713D2048713E2088710B4650
:10101000074801210268082004F0FAF9FA230022A7
:101020001146104601F00CFD10BD0000F4561C18CE
:10103000400100104401001010B50C480C49086034
:1010400000200C490870322048700020887032203F
:10105000C870002008714871102088710B46044840
:1010600001210268082004F0D3F910BDF4561318CA
:10107000400100104401001010B5084808490860FC
:1010800000200849087048708870C8700B460448F2
:1010900001210268042004F0BBF910BDF4561910B8
:1010A000400100104401001010B51C48007A1128BE
:1010B00014D11A48C06800F47F00B0F5003F0DD18C
:1010C000FFF768FEFFF7A0FEFFF7C2FEFFF7E6FEA0
:1010D000FFF708FFFFF72AFFFFF74CFF0F48007AE2
:1010E00011280AD10D48C06800F47F00B0F5C02F68
:1010F00003D1FFF7EBFCFFF713FD0848007A112836
:101100000AD10648C06800F47F00B0F5881F03D1FB
:10111000FFF770FDFFF7C4FD10BD0000306F001039
:1011200010B50246194800EB82342368C3F303402C
:101130000870D80F48701548001D00EB82342368F2
:10114000487818B123F06040486002E0C3F30A0019
:1011500048605AB90D48083000EB823423688B6030
:10116000001D00EB82342368CB600CE0012A0AD119
:101170000648083000EB823423688B60001D00EBCA
:1011800082342368CB60012010BD00002040044061
:1011900070B502460B46581EC3B2334800EB82308E
:1011A00000EB031421683148014031480078000405
:1011B0002F4E767840EAC670014321602C4845786E
:1011C0002948001D00EB823000EB031421683DB17B
:1011D00001F0E0412648406820F06040014306E00D
:1011E0006FF30A0122488088C0F30A00014321609E
:1011F0001D48083000EB823000EB03141C48806867
:10120000206019480C3000EB823000EB03141848C2
:10121000C068206014482C3800EB8234216821F02B
:10122000030141F0030121F0E00123B1012B05D0BE
:10123000022B09D105E041F0200106E041F0400118
:1012400003E041F0800100E000BF00BF21600648DC
:10125000283800EB8234216801F0080008B1012031
:1012600070BD0020FCE7000030400440FFFFF03F6D
:10127000206F0010F0B5002426E0154800EB8435FF
:101280002F6807F00100E8B127F001072F605CB973
:1012900010492046FFF744FF0D48083800EB84351D
:1012A0002E6846F004062E60012C0BD10A49204618
:1012B000FFF736FF0648083800EB84352E6846F005
:1012C00004062E60601CC4B2022CD6DBF0BD000008
:1012D0000C400440306F0010406F0010F0B5044621
:1012E0000D4600BF14B1012C44D11DE043480068F5
:1012F00040F400504149C439C1F8C4004048406D31
:1013000020F007003E4948650846406D40F0040063
:1013100048650846806D20F0070088650846806DA6
:1013200040F00400886526E03448006840F48040BE
:101330003249C439C1F8C4003148D0F81C0120F04A
:1013400007002F49C1F81C010846D0F81C0140F0E5
:101350000100C1F81C010846D0F8200120F0070068
:10136000C1F820010846D0F8200140F00100C1F882
:10137000200100E000BF00BF204600F031FB214803
:1013800000EB8436356001201F4908609CB91D4878
:101390001438406840F00E001A4914394860084675
:1013A000006940F0010008610846806888600846CE
:1013B000C06887B210E01548406840F00E0013493D
:1013C00048600846006940F00100086108468068EE
:1013D00088600846C06887B202200B490860204632
:1013E00002F0F0F91920012181404209920002F136
:1013F000E022C2F8001100BFF0BD0000C4C00F40E1
:1014000000C002401440044000C00340008004407B
:1014100003484068022802D1032001494860704710
:10142000783D001010B5FFF75BFC002001494860D3
:1014300010BD0000783D001010B501200249486041
:10144000FFF76CFC10BD0000783D0010014631B183
:10145000012907D0022908D003290CD108E0074848
:101460000068704706480068FBE706480068F8E730
:1014700005480068F5E700BFFEE700000000001027
:1014800004000010080000100C00001010B50948FE
:10149000007A28B9012008494860FFF757FC08E0A6
:1014A0000448007AAA2804D1FFF7ECFA0220024986
:1014B000486010BD306F0010783D001010B51B481B
:1014C000406802282AD11A48007A80B9FFF770FDD7
:1014D0000220164948601748006A40F080501549BC
:1014E00008620846806B40F0805088631CE010481A
:1014F000007AAA2818D1FFF75BFD03200B4948604A
:10150000FFF73AFA0B48006A40F080500949086238
:101510000846806B40F08050886305E003484068CF
:10152000032801D1FFF744FD10BD0000783D0010F5
:10153000306F00100080092010B5FFF755FDFFF750
:10154000CFFB0120024988610020486010BD0000E7
:10155000783D001010B5FFF78FFDFFF745FD1148EE
:10156000006A40F080500F4908620846C06B40F0A6
:101570008050C8630846006840F0010008600846D3
:10158000C06940F00100C8610846006A40F00050A0
:1015900008620846C06B40F00050C863042002494E
:1015A000486010BD00800920783D001010B5264825
:1015B0004068264A811A904228D013DC244AA0EBC6
:1015C000020190422ED006DC2249084480B3224911
:1015D000084470BB1DE02148084498B1B0F5C02F05
:1015E0002BD112E0B1F5202F16D0B1F5A81F1CD0D9
:1015F000B1F5F01F03D01A480844D0B90FE0FFF747
:101600001BFF1BE0FFF742FF18E017E0FEF772FE3A
:1016100014E0FFF753FF11E0FFF7FAFE0EE0FFF7CB
:1016200043FD0BE0FFF796FF08E0FFF785FF05E0BD
:1016300000E002E0FFF7F6FE00E000BF00BF002080
:101640000149486010BD0000306F001056F40818C2
:1016500056F41A10AA0BE0F7000015F8000019F86C
:1016600000001CFB38B50446C1208DF80000A920FD
:101670008DF8010002208DF8020065208DF803002E
:101680006A460C21204603F0FBFF01220021204680
:1016900003F086FF01221146204603F081FFC82097
:1016A00001F094F90321204602F0FCFA1949086080
:1016B00008460068132806D010220121204603F0B6
:1016C0006FFF002038BD04220121204603F068FF8F
:1016D00000BFC82001F07AF90221204602F0E2FAA8
:1016E00000F0080030B110220121204603F058FF1D
:1016F0000020E7E70621204602F0D4FAFF2805D0B3
:1017000010220121204603F04BFF00E0E1E700BF7B
:101710000120D7E7C800001010B502F05DF900F015
:1017200001F810BD10B52848018840F2012000F0F2
:1017300017F925484088642190FBF1F4214640F2D6
:10174000022000F00DF92148408A00EB80004100A2
:1017500040F2032000F004F91C48808A00EB80006E
:1017600041004FF4017000F0FBF81848017B4FF482
:10177000607000F0F5F81548417B4FF4647000F09C
:10178000EFF81248817B4FF44C7000F0E9F80F48F5
:10179000408A00EB800041004FF4507000F0E0F808
:1017A0000A48808A00EB800041004FF4547000F03A
:1017B000D7F80648008A00EB800041004FF44070E3
:1017C00000F0CEF810BD00007C000010783D001045
:1017D0002DE9F0470446894617462078AA2802D109
:1017E0006078F52802D00020BDE8F087A178E07885
:1017F00001EB002085B22079022801D00020F3E718
:1018000094F80580A179E07901EB0020C6B2672E3B
:1018100054D00EDC072E36D006DC012E18D0032E55
:101820001FD0052E77D125E0092E35D0652EF9D1B0
:101830003BE0C92E66D006DC692E48D06B2E4FD017
:101840006D2E7BD155E0CB2E66D0CD2E76D16CE0BF
:10185000A5F1090081B23A4604F1080004F05FFAEC
:101860006DE0A5F1090081B23A4604F1080004F0E8
:1018700035FB64E0A5F1090081B23A4604F10800A5
:1018800004F077FB5BE0A5F1090081B23A4604F170
:10189000080004F06FFB52E0A5F1090081B23A465E
:1018A00004F1080004F067FB49E0A5F1090081B2EA
:1018B0003A4604F1080003F0C9FF40E0A5F1090031
:1018C00081B23A4604F1080003F0FEFF37E0A5F1CB
:1018D000090081B23A4604F1080004F0F9F82EE05C
:1018E000A5F1090081B23A4604F1080004F00CFAAF
:1018F00025E0A5F1090081B23A4604F1080004F0A0
:1019000007FA1CE0A5F1090081B23A4604F108008B
:1019100004F006FA13E011E0A5F1090081B23A469D
:1019200004F1080004F0D2FA09E0A5F1090081B23F
:101930003A4604F1080004F0CDFA00E000BF00BF11
:1019400056B1064800684FF6FF71884204D203483A
:101950000068401C01490860304645E7DC00001083
:101960007CB505460E466C465A2004F8010BA520AE
:1019700004F8010B052004F8010B822004F8010B88
:10198000281204F8010B2846E91705EB116109122A
:10199000A5EB012104F8011B300A04F8010B04F83F
:1019A000016B0821684602F0BFFE052300221146A4
:1019B000104601F045F87CBD10B5074800780128B5
:1019C00009D10648007830B901F0FCFF03F0EEFCC5
:1019D000002003F097FC10BDD0000010D2000010D2
:1019E00008B50146084800EB813210680090009865
:1019F00020F00100401C00900098106010680090DA
:101A0000009800F0010008BD0040044010B502F04D
:101A1000FFFA0446204610BD10B50446204602F0E9
:101A20001FFB10BD40F2E271C1800C214171052104
:101A3000C170042101710C218170417001707047E7
:101A400008B5009002E00099491E00910099002914
:101A5000F9D108BD2DE9F04104460D461646184857
:101A6000006840F48030164908600846C06940F4B8
:101A70008030C8610520FFF7E3FF032002F06CFA15
:101A8000280A02F069FAE8B202F066FA002705E0D7
:101A900002F03AFA2070641C781C87B2B742F7DB78
:101AA0000520FFF7CDFF0648006840F48030044968
:101AB00008600846806940F480308861BDE8F081A4
:101AC0000080092010B51248006840F480301049A9
:101AD00008600846C06940F48030C8610520FFF7FF
:101AE000AFFF052002F038FA02F00EFA0446052096
:101AF000FFF7A6FF0648006840F4803004490860FC
:101B00000846806940F480308861204610BD00009E
:101B1000008009202DE9F04104460D461746FFF7E5
:101B2000D1FF804608F07100002857D12C4800688A
:101B300040F480302A4908600846C06940F480308B
:101B4000C8610520FFF77CFF062002F005FA05209A
:101B5000FFF776FF2248006840F480302049086093
:101B60000846806940F4803088610520FFF768FFEF
:101B700000BFFFF7A7FF00F080000028F9D1184848
:101B8000006840F48030164908600846C06940F497
:101B90008030C8610520FFF753FF022002F0DCF916
:101BA000280A02F0D9F9E8B202F0D6F9002605E0D9
:101BB000207802F0D1F9641C701C86B2BE42F7DBBB
:101BC0000520FFF73DFF0648006840F480300449D7
:101BD00008600846806940F480308861BDE8F08183
:101BE000008009202DE9F04304460D4616461F46A5
:101BF000DDF81CC00020E1E014F80080B8F1680FA7
:101C000075D100F1070814F80880B8F1680FF7D112
:101C100000F1090814F8088008F10A0808F0FF022A
:101C200000EB020808F1010814F80880B8F1160F5B
:101C300000D0BFE0002300210AE000EB010814F807
:101C40000880984408F0FF0301F101081FFA88F1A9
:101C50009142F2DB00EB020814F80880984500D0AE
:101C6000A8E004EB0008D8F80190C5F80090B8F897
:101C70000580A5F8048000F1080814F8088008F031
:101C8000800202B996E000F1080814F8088008F014
:101C9000400202B18EE000F1080814F8088008F054
:101CA0000F02012A01D0022A56D100F1090814F8C6
:101CB0000880B8F1040F00DC7CE000F1090814F89A
:101CC0000820102A00DD75E000210CE000F10A0870
:101CD000884414F80880A8F1330806F8018001F15F
:101CE00001081FFA88F10429F0DB042131E060E0EB
:101CF00000F10A08884414F80880B8F1320F0FD0B8
:101D000000F10A08884414F80880B8F1000F07D0E1
:101D100000F10A08884414F80880B8F1FF0F07D1D1
:101D20004FF0000900F10A08884404F808900CE01C
:101D300000F10A08884414F80880A8F1330808F074
:101D4000FF09A1F1040807F8089001F101081FFA42
:101D500088F19142CCDB2BE0042A29D100F109085B
:101D600014F80880B8F1000F00D023E00A22002305
:101D700000210AE000EB010814F80880984408F0FC
:101D8000FF0301F101081FFA88F19142F2DB00EB39
:101D9000020814F80880984500D00BE000EB020818
:101DA00008F1010814F80880B8F1160F00D001E01E
:101DB00007E000BF00F101081FFA88F06045FFF45A
:101DC0001BAF00BFBDE8F0832DE9F0438446884691
:101DD0001546DDE907463146FE2001F8010B01F802
:101DE000010B01F8010B01F8010B682001F8010B50
:101DF000DCF800000860BCF804008880891D6820B9
:101E000001F8010B01F8018B01F8014B042C1CDBDC
:101E100005F1330001F8010B280A333001F8010BFA
:101E2000280C333001F8010B332000EB156001F86A
:101E3000010B002206E013F8010B333001F8010B0F
:101E4000501CC2B2201F9042F5DC0027042204E09F
:101E5000B05C3844C7B2501CC2B204F10E008242DA
:101E6000F6DB01F8017B162001F8010B04F11000EC
:101E7000C0B2BDE8F08300001648006840F480500E
:101E8000144908600846C06940F48050C86108469B
:101E9000006C40F4805008640846C06D40F48050E7
:101EA000C8650846006840F48030086008468069CC
:101EB00040F48030886107488030006840F48060DA
:101EC000C1F880000846D0F89C0040F48060C1F85A
:101ED0009C0070470080092001460A2091FBF0F227
:101EE00000FB121291FBF0F002EB0010C0B2704741
:101EF00070B504460D4616461048007800B970BD0E
:101F00000F4800684FF6FF71884204D20C48006801
:101F1000401C0B490860012E0BD1022000F056FD39
:101F20002A462146002003F0A9FA022000F04EFDC7
:101F300000E000BF00BF00BFE1E70000D2000010DA
:101F4000D800001010B507480078012809D14102D7
:101F50000548FEF70CF90449002001F009FE034989
:101F6000088010BDD000001000420010C400001016
:101F70007CB5002472E00025AA2206213948FEF72C
:101F8000EFF838480021C160016141613648042101
:101F9000CDE90010354850F82420324B0C33112184
:101FA0003048FFF711FF32490880084601882E4863
:101FB00002F0DAFC2C492FA001F0F3FA4FF4FA7387
:101FC00001220021084600F03BFD2B480021C0F80B
:101FD0000610C160016141614FF48060264B0C33F3
:101FE0009A1F911F00902548FFF7FCFDC6B22248BA
:101FF000407A01062048007A41EA00411E48C07933
:1020000041EA00201C49897940EA0105B5F5803F85
:1020100016D01B48284418B1B0F5803F18D107E00E
:102020000C2115480C3000F06FF81649088010E0BC
:102030000C2111480C3000F067F81249488008E084
:102040000C210D480C3000F05FF80E49486000E0AC
:1020500000BF00BF02F064FC601CC4B2032C8ADB2A
:102060007CBD0000D0410010D03D0010B0620000E7
:102070008400001025730000E84100108056001015
:1020800000FFFEFD7C00001070B5002400251B48F9
:102090000088782190FBF1F0012805DB002017492A
:1020A000088001F08FFC70BD15480078012802D02F
:1020B0001448007800B9F6E711480078012815D0D7
:1020C000002411E001216A2002F024FF002507E02E
:1020D0004FF4FA6000F07AFC01F0A0FE681CC5B273
:1020E000032DF5DB601CC4B20A2CEBDB044800783E
:1020F00010B900200349087000BFD4E75401001054
:10210000D3000010D2000010F0B506460C460027A0
:1021100000250BE0611B491E705CFEF73FFB07EBDF
:10212000C70101EB071100EB81076D1CA542F1D33C
:102130003846F0BD00F01F02012191404209920093
:1021400002F1E022C2F800117047014600E0491E8A
:102150000029FCDC704700001D481E481E481F482F
:102160001F48204820482148214822482248234827
:1021700023482448244825482548264826482748F7
:10218000274828482848294829482A482A482B48C7
:102190002B482C482C482D482D482E482E482F4897
:1021A0002F48304830483148314832483248334867
:1021B0003348344834483548354836483648374837
:1021C0003748384838483948394800BF7047000018
:1021D0003C6200004062000046620000486200006D
:1021E000446200004A6200004C6200004E6200003F
:1021F000506200005262000054620000566200000B
:10220000586200005A6200005C6200005E620000DA
:1022100060620000626200006462000066620000AA
:10222000686200006A6200006C6200006E6200007A
:10223000706200007262000074620000766200004A
:10224000786200007A6200007C6200007E6200001A
:1022500080620000826200008462000086620000EA
:10226000886200008A6200008C6200008E620000BA
:102270009262000094620000966200009862000082
:1022800018100010981400109C6200009E6200005C
:10229000A0620000A2620000A4620000A66200002A
:1022A000A8620000AA620000AC6200009A6200000E
:1022B000AE62000070B505460E4614461048007820
:1022C00010B11220207070BD2878012808D0022893
:1022D00007D0032802D0042804D100E000BF00BFCB
:1022E00000BF02E001202070EDE700BFFEF766F9B5
:1022F0006E61FEF76CF90020207000BFE3E700007C
:102300003100001010B500F019F800F0B1FE00F037
:10231000D9FE00F0F9FE00F07BFE00F04DFE00F06B
:102320008DFF00F0B7FF00F02FFF00F055FF00F029
:1023300043FC00F009F8FFF70FFF10BD0020014932
:1023400008807047140000107047000010B51A484C
:10235000007801282ED1FEF731F91848007820B115
:1023600016480078401E1549087014480078F8B9DE
:1023700013480078E0B900F0EDFF124812490978DF
:1023800050F82100114908600F4800781049097879
:1023900088420DD00D480068C06B401C0B4909688D
:1023A000C8630C480068401C0A490860FEF735F90C
:1023B000FEF70DF910BD00003E00001031000010C6
:1023C00032000010B0060010340000104C00001065
:1023D000330000101800001010B50A4800780128DA
:1023E0000FD1FEF7EBF80848007840B907480078AD
:1023F000FF2804D205480078401C04490870FEF705
:10240000E6F810BD3E000010310000103200001050
:1024100010B51148007801281CD1FEF7CFF80F48FD
:102420000078A8B10D480078401E0C490870084695
:10243000007850B90A48007820B9FEF7C8F800F0D3
:1024400051FF07E0FEF7C3F804E0FEF7C0F801E033
:10245000FEF7BDF810BD00003E0000103200001075
:102460003100001070B505460F48007808B1002013
:1024700070BDFEF7A3F80D480468006820B10B4852
:102480000068406809490860FEF7A1F84CB10320D4
:10249000207025810020606005A06061204600F06A
:1024A0007DFD2046E4E70000310000101C00001014
:1024B0003F00000070B505460E46144628780328F4
:1024C00002D00120207070BD2F48007810B102208A
:1024D0002070F8E72D48007810B10D202070F2E749
:1024E000FEF76CF8288938B12889401E2881FEF74C
:1024F0006EF800202070E6E72548006890F8340068
:1025000040F001002249096881F834000020204988
:10251000096881F835001E4800680663284600F007
:10252000FFFCFEF754F800F0DDFEFEF747F8184810
:10253000006890F8350020B1012809D0022806D1A2
:1025400002E0002020700BE00E20207008E000BFA9
:1025500029460F48006800F0B1FC0A20207000BF37
:1025600000BF00200A49096881F834000849096859
:1025700081F8350006490968C8610549096808629B
:10258000FEF725F800BF9EE7310000103200001072
:102590004400001010B504462078032801D0012023
:1025A00010BDFEF70BF8A07A58B10023012219469E
:1025B000204600F03BFCFEF70AF800F093FE0020F6
:1025C000EEE720894FF6FF71884206D22089401C31
:1025D0002081FDF7FCFF0020E2E7FDF7F8FF332044
:1025E000DEE7000010B50B48007890B900F0B2FEAD
:1025F000094800780949087009480749097850F8DE
:102600002100084908600846006807490860FDF78E
:10261000ECFF10BD3E00001034000010330000102D
:10262000B00600104C0000104400001010B502204D
:1026300000F0CCF9FDF7C2FF002009490860FDF762
:10264000C6FF642000F0C2F9FDF7B8FF0448006837
:1026500004490860012004490870FDF7B8FF10BD67
:1026600040000010280000103000001070470000EB
:102670002DE9FE4306460F4690461C46FDF79EFF99
:102680001C48007820B1FDF7A2FF3C20BDE8FE8386
:10269000194850F8240048BB0120174941F824008C
:1026A000FDF795FF002342463946304600F0F0F82A
:1026B0008146002000900190034602464946029060
:1026C000204600F05DFE054635B90C48007801282B
:1026D0000AD100F007FE07E0FDF770FF0020064971
:1026E00041F82400FDF773FF2846CFE7FDF76FFFA1
:1026F0002820CBE731000010B00600103E0000108B
:102700002DE9FF5F81468A4693461C46DDE90F7836
:10271000129DFDF753FF2048007828B1FDF757FFC1
:102720003C2004B0BDE8F09F1C4850F8240070BB6A
:1027300001201A4941F82400FDF749FF2A46414685
:10274000384600F021FF2B465A465146484600F0D5
:102750009FF803901198CDE9008002953A462046F3
:102760000E9B039900F00CFE064636B90C48007823
:1027700001280AD100F0B6FD07E0FDF71FFF002099
:10278000064941F82400FDF722FF3046C9E7FFE77C
:10279000FDF71DFF2820C4E731000010B00600102F
:1027A0003E000010704770472DE9F04106460F4685
:1027B00014461348007818B112202070BDE8F0814B
:1027C000FDF7FCFEFF2E03D10E48006890F836603E
:1027D0000D4850F8265025B9FDF7F9FE432020702A
:1027E000ECE7012D04D1FDF7F2FE43202070E5E770
:1027F0002F65FDF7ECFE0020207000BFDEE7000033
:102800003100001044000010B006001070470000B6
:102810002DE9F04707460D46002028606860FDF767
:10282000CDFEFF2F03D11848006890F83670174886
:1028300050F8274024B9FDF7CAFE4320BDE8F087D1
:10284000012C03D1FDF7C3FE4320F7E7207C00F005
:10285000010018B9FDF7BBFE4520EFE70026D4F8CC
:102860000C90D4F80880FDF7B2FE00E0761C58F812
:10287000041B0029FAD0B0002860A9EB06008000F4
:1028800068600020DAE7000044000010B006001085
:1028900070B5044610464FF080750560051F284648
:1028A0002C606FF00106051F28462E604FF012368F
:1028B000051F28462E604FF00336051F28462E6060
:1028C0004FF00236051F28462E607610051F284659
:1028D0002E60051F284629604FF01136051F284637
:1028E0002E604FF01036051F28462E604FF0093637
:1028F000051F28462E604FF00836051F28462E601B
:102900004FF00736051F28462E604FF00636051F8C
:1029100028462E604FF00536051F28462E604FF0E2
:102920000436051F28462E6070BD00002DE9F041D9
:102930000546FDF743FEFF2D05D11F48006890F8BE
:102940003650012608E01C48006890F83600A8427E
:1029500001D1012600E00026184850F8254024B98E
:10296000FDF735FE4820BDE8F081012C03D1FDF7CD
:102970002EFE4320F7E794F838701148C05D94F8B4
:10298000391088430E49C8550846C05D30B994F8DF
:102990003A100C48007888430A49087094F83400CB
:1029A00040F0080084F83400FDF711FE012E01D13B
:1029B00000F098FC0020D6E744000010B00600109C
:1029C00036000010350000107047000070B5054655
:1029D0001648007800B170BD1548007800B1FAE7DC
:1029E0000DB3FDF7EBFD1348006890F8384012482E
:1029F000005D1049096891F8391088430E4908555F
:102A00000846005D40B90B48006890F83A100B4842
:102A10000078884309490870064800680563FDF797
:102A2000D6FD00F05FFC00BFD5E7000031000010CC
:102A30003200001044000010360000103500001075
:102A40002DE9F04105460E4617461C46124800780F
:102A500010B15520BDE8F0811048007808B132204F
:102A6000F8E74FF47A7060434FF47A71B0FBF1F1FC
:102A70004FF461606843C6EB061200EB82003844F5
:102A800000EB4002C2EBC01001EBC0084046FFF76C
:102A90009DFF0020DEE70000310000103200001032
:102AA00070B500F06DF8FDF789FD2F480068401CF7
:102AB0002D490860FDF78BFD2C480078012851D185
:102AC0002B48007820B1012804D0022809D103E066
:102AD00001250BE0002509E00125012024490870AB
:102AE00004E0012500202249087000BF00BF05B99D
:102AF00070BD2048046831E0FDF760FD206B50B3E5
:102B0000206B401E2063206B28BB94F8340000F03B
:102B1000370040B114F8340F00F0C80020700120D5
:102B20006070343C02E0002084F8350094F83400F2
:102B300000F0080078B93834A0780F4909780843C4
:102B40000D49087020780D49085C6178084314F835
:102B500038190A4A50546469FDF739FD94F8360073
:102B60003F28C9D100BFC3E7600000103E0000103D
:102B70005400001050000010350000103600001006
:102B800010B507480088401C0549088008460088A1
:102B9000642803D30020088000F004F810BD000072
:102BA0001400001010B503480068FFF7F3FC04465A
:102BB000204610BD70000010F8B54FF42071284871
:102BC00000F032FB4021274800F02EFB002514E0E6
:102BD000681C86B205EB8500214901EBC00406EBB9
:102BE000860001EBC00764202070002084F82500D7
:102BF000E7601DA02062681C85B20F2DE8D305EBAD
:102C00008500174901EBC00464202070002084F87F
:102C10002500E06014A020620020144908601449D7
:102C200008801020134908800D48134908600120CE
:102C3000FFF718FC114908600020FFF713FC10494A
:102C400008606A460FA10D480068FFF733FB6A462B
:102C500011A10B480068FFF72DFB00F027F8F8BD25
:102C600018100010981400103F00000068000010B9
:102C70006600001064000010740000106C0000106A
:102C80007000001075432F4F532D494920546D7229
:102C90004C6F636B0000000075432F4F532D494963
:102CA00020546D725369676E616C000000B587B087
:102CB0000320002180220A4BCDE90132CDE9031027
:102CC0004FF6FD703C23074A00900748FFF718FDB8
:102CD00006AA06A13C20FFF767FD07B000BD000073
:102CE0009812001094140010692D000075432F4FA6
:102CF000532D494920546D720000000070B50B46F9
:102D0000032580F82550012B05D1154EC56936687D
:102D1000354445610CE085692DB9114EC5693668A9
:102D20003544456104E00E4E856936683544456199
:102D3000057D05F007040B4D05EBC4010D682DB9A9
:102D400008600025C56001258D8006E00A680860DE
:102D5000C26010618D886D1C8D800025056170BD7D
:102D6000680000109814001008B500BF00BF6A4644
:102D700000211A480068FFF79DFBFFF72DFB18485C
:102D80000068401C164908600846007800F00708F3
:102D9000144800EBC8073C681AE0E668104960690F
:102DA0000968884213D1204600F01EF894F82400E8
:102DB000022804D101212046FFF7A0FF02E00220F3
:102DC00084F82500656815B12046A168A8473446F7
:102DD000002CE2D1FFF71CFBC9E7000070000010D7
:102DE000680000109814001030B5057D05F0070448
:102DF0000D4D05EBC4031D68854205D1C1681960FE
:102E000039B100250D6104E00169C268CA6002B1F0
:102E10001161012580F825500025C56005619D8858
:102E20006D1E9D8030BD0000981400102DE9F04FFC
:102E300005460F4690469946A87A1C490E5C05F156
:102E40000B00805D11F800B00BEBC60000F0FF0A2C
:102E5000174850F82A4000202434E0602760207C86
:102E600020EA0800207484F81190207C243C00F0B3
:102E7000080068B994F83A000E49097808430D49EA
:102E800008700D48805D94F8391008430A49885548
:102E90002946204600F012F8206A20B12046216A17
:102EA00000F021F8E5615046BDE8F08F3C6100007C
:102EB000B0060010350000103600001010B590F874
:102EC000382001F10B039B5C90F83940A34301F1DA
:102ED0000B04A35423469B5C23B98B7A90F83A40A9
:102EE000A3438B7210BDF0B5024612F8384F9578A7
:102EF0005678383A0B4618680FE000F10B073F5D33
:102F0000B74300F10B0C0CF8047067463F5D17B92E
:102F1000877AAF4387721B1D18680028EDD1F0BD7A
:102F200010B51B4A1268D061194A126892F83830FD
:102F300000F10B02D25C164B1B6893F839301A4330
:102F4000134B1B6893F8384000F10B031A55827A33
:102F50000F4B1B6893F83A301A4382720C4A12687E
:102F600092F838100B4A525C094B1B6893F83930C1
:102F70009A43084B5A541A46525C42B9044A1268A2
:102F800092F83A30044A12789A43034B1A7010BDF3
:102F900044000010360000103500001001460022E9
:102FA0008A72002005E0002301F10B021354421C39
:102FB000D0B20828F7D370472DE9F04150211148CD
:102FC00000F032F900250DE0681C86B20D4800EBD8
:102FD000051400EB06170020207067600AA0E0606F
:102FE000681C85B2042DEFD3064800EB05140020C1
:102FF0002070606004A0E060024804490860BDE8F9
:10300000F0810000600200103F000000200000106E
:1030100070B5F021134800F007F9002411E0601C9E
:1030200085B204EB44000F4901EBC00305EB4500FA
:1030300001EBC006002018705E600BA05861601C98
:1030400084B2092CEBD304EB4400064901EBC00326
:1030500000201870586004A05861084603490860B1
:1030600070BD0000700100103F0000001C00001047
:1030700000200A4908600A4908700A4908700A498C
:1030800008700A4908700A4908600A4908600A4934
:1030900008600A4908600A4908707047600000101B
:1030A00031000010320000103F0000103E00001000
:1030B00018000010400000102C0000102800001024
:1030C0003000001000210A4A1170002004E00021A5
:1030D000084A1154411CC8B20828F8D30021064AF6
:1030E0001170064A1170064A1160064A1160704755
:1030F00035000010360000103300001034000010BE
:103100004C0000104400001070B54FF4F2611948F3
:1031100000F08AF84FF48071174800F085F8002419
:1031200013E0601CC5B204EB440000EBC40011497D
:1031300001EBC00305EB450000EBC50001EBC00649
:103140005E610EA01865601CC4B2152CE9D304EBB7
:10315000440000EBC400074901EBC00300205861A4
:1031600006A0186500200649086002480549086065
:1031700070BD0000B0070010B00600103F00000056
:10318000500000104800001000B587B00320002157
:1031900080220A4BCDE90132CDE903104FF6FF70D2
:1031A0003F23074A00900748FFF7AAFA06AA06A19C
:1031B0003F20FFF7F9FA07B000BD0000B00400108F
:1031C000AC060010A934000075432F4F532D494918
:1031D0002049646C6500000000B587B00320002121
:1031E00080220A4BCDE90132CDE903104FF6FE7083
:1031F0003E23074A00900748FFF782FA06AA06A175
:103200003E20FFF7D1FA07B000BD0000B002001069
:10321000AC040010C934000075432F4F532D4949A9
:10322000205374617400000004E0002200F8012BB8
:103230004A1E91B20029F8D17047000070B578217C
:103240001148FFF7F1FF00240EE004EB44000E49A3
:1032500001EBC005601C00EB400001EBC0006860A2
:103260000AA06861601C84B2042CEED304EB440015
:10327000054901EBC0050020686004A068610846AC
:103280000349086070BD0000400F00103F000000BF
:10329000580000102DE9F04160211048FFF7C4FFED
:1032A00000240DE0601C86B204EB44000B4901EBE6
:1032B000C00506EB460001EBC0072F60601C84B21E
:1032C000032CEFD304EB4400044901EBC0050020BC
:1032D0002860084602490860BDE8F081B80F001078
:1032E0005C00001010B5FDF769F913480078F8B9D3
:1032F00012480078E0B900F02DF81148114909781A
:1033000050F82100104908600E4800780F490978EC
:1033100088420DD00C480068C06B401C0A490968FF
:10332000C8630B480068401C09490860FDF76EF946
:10333000FDF74DF910BD0000310000103200001003
:10334000B0060010340000104C00001033000010D4
:10335000180000100649074A1278885C0649095C83
:10336000034A515C01EBC001044A11707047000030
:103370003C610000350000103600001034000010E1
:103380002DE9F05F05460F4690469946DDE90AAB08
:10339000FDF714F93D480468002C72D01C3454F831
:1033A000080C3A490860FDF712F944F81C7CA57630
:1033B000002020766076606144F818BC44F810ACB8
:1033C00044F8148C0C9824F80C0C24F80A9C002067
:1033D000E077E810207705F00700E076217F0120F4
:1033E0008840A077E17E012088406077002020603F
:1033F0006060E060A0602062A0626062E0622063C2
:1034000023A060631C3C002606E0002104F1540068
:1034100040F82610701CC6B2002EF6D02046FFF7EA
:1034200025F92046FFF7BEF9FDF7C8F8194840F81E
:1034300025401948006860610020A06116480068B6
:1034400010B1154800688461134804603834A078CE
:103450001249097808431149087020781049085C1E
:103460006178084314F838190D4A50540D48007813
:10347000401C0C490870FDF7AAF80020BDE8F09F39
:10348000FFE7FDF7A4F84220F8E70000480000102D
:103490003F000000B0060010500000103500001082
:1034A000360000103F00001000BF00BFFDF786F897
:1034B00004480068401C03490860FDF788F8FFF7DE
:1034C00072F9F3E74000001000BF02E0C820FFF7E8
:1034D0007DFA194800780028F8D01848006864215F
:1034E000B0FBF1F0154908600846006828B90020D3
:1034F00013490870FF20FFF719FA00BFFDF75EF8C7
:10350000104800681049086000200E490860FDF767
:103510005EF80D48006809490968B0FBF1F0C0F198
:10352000640007490870FFF771F900F00FF8642094
:10353000FFF74CFAE2E7000030000010280000100E
:1035400024000010400000102C0000107CB5002565
:1035500014E069462846FFF75BF9064666B9094854
:1035600050F8254044B1012C06D0D4E9020100EB0B
:103570008100A0640198E064681CC5B23F2DE8D9C1
:103580007CBD0000B006001002F0010343B102F060
:1035900002032BB102E0491E002308C00029FAD122
:1035A00070470FB42DE9F84300BF0027B846B9466D
:1035B000002409A80090089C62E0207825285BD1AF
:1035C000601C04460078642820D00CDC582844D0C5
:1035D00004DC252848D042284AD136E0622833D07E
:1035E000632845D108E0662818D069280FD07328D1
:1035F00022D078283CD12FE0009810F8041B01F06D
:10360000FF090090484600F05DF832E000BF0098E6
:1036100080C80090384600F05BF82AE00098C01D92
:1036200020F007000090D0E90056083000902846AE
:10363000314600F063F81CE0009850F8048B0090CD
:10364000404600F0B3F814E000BF009880C8009036
:10365000384600F01DF80CE000BF009880C80090CC
:10366000384600F079F804E0252000F02BF800E05F
:1036700000BF00BF641C03E014F8010B00F022F847
:103680002078002899D10090BDE8F8035DF814FB7C
:1036900070B504461CB90AA000F088F870BD254634
:1036A00004EBD5714810FFF7F3FF04EBD571491017
:1036B000A4EB41013031C8B200F004F800BFEDE7DF
:1036C0003062000010B50446204600F015FF10BD22
:1036D00070B5044604B970BD0A2094FBF0F5284685
:1036E000FFF7F6FF0A2094FBF0F100FB11403030A9
:1036F000C5B22846FFF7E6FF00BFECE72DE9F0472B
:1037000004460D464FF00009002620462946FCF7E6
:1037100069FE06463046FFF7DBFF2E20FFF7D2FF9B
:103720003046FCF7D6FD074622462B46FCF7CEFD79
:1037300004460D460022074B20462946FCF7E0FDD3
:103740000746FCF74FFE06463046FFF7C1FFBDE8CF
:10375000F087000080842E4170B504461CB912A089
:1037600000F024F870BD2546E11704EB1171081133
:10377000FFF7F2FF0A2C0ADAE11704EB11710911C5
:10378000A4EB01113031C8B2FFF79CFF0AE02546D7
:10379000E11704EB11710911A4EB01115731C8B203
:1037A000FFF790FF00BFDDE73078000010B504465A
:1037B00003E014F8010BFFF785FF20780028F8D10B
:1037C00010BD000008B50246094800EB82310868C8
:1037D0000090009820F001000090009808600868B0
:1037E0000090009800F0010080F0010008BD00008A
:1037F0000040044030B501462E48006840F4007097
:103800002C4AC43AC2F8C4002B48007800F01000DB
:1038100038B12948007840F01000274A5C3A82F815
:103820005C000020244A5C3A1072032010700120D2
:103830001073FF201074C888908748791E4A243A74
:103840001070C8781C4A303A10700879121D107038
:103850008878194A343A10704878121F1070087826
:10386000121F10700120144A5C3A107311200122BB
:10387000824043099B0003F1E023C3F8002100BF0D
:103880001222002807DAD3061D0E0C4B00F00F049D
:10389000241F1D5503E0D3061C0E094B1C5400BF0A
:1038A0000120054A5C3A1073032010700120107249
:1038B00030BD0000C4C00F405C40024018ED00E085
:1038C00000E400E0344840693449086032488069C7
:1038D0003349086008460068C0F30B403149C8808E
:1038E0002F480088C0F3032048712D48007800F06D
:1038F0001F00C87029480068C0F30260087127489B
:103900000068C0F30440887024480088C0F3052094
:1039100048702248007800F03F00087001201E49DE
:1039200008702149087021480088401C1F49088000
:103930001F480088401C1E4908801E480088401C03
:103940001C4908801C480088401C1B4908801B49F2
:1039500008780978491C194A117000EBD071491098
:10396000A0EB410159B11648006840F48050144959
:1039700008600846806940F4805088610AE0104879
:10398000006840F480500E4908600846C06940F461
:103990008050C8617047000000400240580100108C
:1039A0005C010010600100104C0100104E0100107D
:1039B0005001001052010010540100106801001065
:1039C00000800920002002490870024908707047F1
:1039D000D2000010D300001010B50A20FEF7F6FF49
:1039E00014215F48FCF7C3FB0024B2E05D48005D92
:1039F0005A2874D15B49601C085CA528F9D1E01CE9
:103A0000085C8328F5D10846005D5549C91F087038
:103A10005449601C085C5249C91F48705149A01C98
:103A2000085C4F49C91F88704E49E01C085C4C492E
:103A3000C91FC8704B49201D085C4949C91F8880AF
:103A4000084680884FF6FF7101EA00204449C91FEB
:103A5000888008468188434A601D105C08444049BC
:103A6000C91F88801146A01D085C3D49C91F887187
:103A7000084682793B4BE01D19183948FCF75EFB7C
:103A80003748C01F8088B0F5866F3FD009DCB0F59D
:103A9000806F0DD0B0F5826F22D0B0F5846F4DD11C
:103AA0002CE0B0F5886F41D0B0F58A6F46D135E093
:103AB000002203212A48FCF7F5FD2B4948820846DD
:103AC000408A40F2EE21884204DC2748408AB0F563
:103AD000AF7F03DA4FF4E170234948822FE036E0EC
:103AE000002203211E48FCF7DDFD1F49888208469D
:103AF000808AFA2801DBFA20888220E00022022155
:103B00001748FCF7CFFD1849887318E000220321FD
:103B10001348FCF7C7FD1449088210E00022012178
:103B20000F48FCF7BFFD1049087308E0002201218F
:103B30000B48FCF7B7FD0C49487300E000BF00BF1D
:103B400000F0CEFD202200210748FDF7E3FF601CB6
:103B5000C4B206480068401C8442FFF447AF10BD61
:103B60009F3D0010804E0010783D0010FC000010BA
:103B70002DE9F04780460D462621404600F0C8F862
:103B8000064616B90020BDE8F087B6F5806F01D96A
:103B90004FF480662821404600F0BAF80746B9463F
:103BA000C7F30A073E48006A40F480703C49086247
:103BB0000846C06B40F48070C8630520FEF7C5FA64
:103BC000380AFDF729FFF8B2FDF726FF182101EBAF
:103BD0004811C8B2FDF720FFB819B0F5006F09D23F
:103BE000002404E0FDF712FF05F8010B641CB44249
:103BF000F8D33AE0C7F50067002404E0FDF706FFBC
:103C000005F8010B641CBC42F8D32548006A40F457
:103C10008070234908620846806B40F48070886396
:103C20000520FEF792FA1E48006A40F480701C4995
:103C300008620846C06B40F48070C8630520FEF738
:103C400084FA0020FDF7E8FE0020FDF7E5FE1821CC
:103C500001EB4811C8B2FDF7DFFE04E0FDF7D6FE28
:103C600005F8010B641CB442F8D30D48006A40F417
:103C700080700B4908620846806B40F4807088634E
:103C80000520FEF762FAB1444A462821404601F079
:103C9000BDFC40220121404601F082FC304672E723
:103CA0000080092070B504460D4600261748006ABA
:103CB00040F48070154908620846C06B40F480707B
:103CC000C8630520FEF741FAC5F30720FDF7A4FEFF
:103CD000E8B2FDF7A1FE082101EB4411C9B241F0A1
:103CE0000100FDF799FEFDF791FE06460748006AC0
:103CF00040F48070054908620846806B40F480708B
:103D000088630520FEF721FA304670BD0080092047
:103D10002DE9F04104460D461A48006A40F48070CF
:103D2000184908620846C06B40F48070C8630520DB
:103D3000FEF70BFAC5F30720FDF76EFEE8B2FDF7BC
:103D40006BFE082101EB4411C9B241F00200FDF7FE
:103D500063FEFDF75BFE07463E02FDF757FE074692
:103D60003E440848006A40F48070064908620846EC
:103D7000806B40F4807088630520FEF7E6F93046DA
:103D8000BDE8F0810080092070B505460221284673
:103D9000FFF788FF044624B122460221284601F09D
:103DA000FFFB204670BD000070B504461A48006A4B
:103DB00040F48070184908620846C06B40F4807077
:103DC000C8630520FEF7C1F92546E11704EB116130
:103DD000C1F30720FDF720FEE11704EB1161091282
:103DE000A4EB0121C8B2FDF717FE0120FDF714FE78
:103DF000FDF70CFE06460848006A40F4807006494C
:103E000008620846806B40F4807088630520FEF7E6
:103E10009CF9304670BD00000080092010B516489E
:103E2000007800B910BD1548007801281DD1002088
:103E300001F068FA0020124908800FE0114B93F856
:103E40004020114B1B880E4C24881B1B99B20F4B32
:103E50000B4C24881819FDF7BBFC05E008480088C6
:103E6000094909888842E9DB00BF04480078022834
:103E700000D1D7E700BFD5E7D2000010D000001076
:103E8000E400001014460010C400001000420010AE
:103E900000201A49096841F40011184AC43AC2F8CE
:103EA000C4101649E4310968C8B21549C96B21F03C
:103EB0000701134AD1631146C96B41F00201D16376
:103EC0001146496C21F0070151641146496C41F0DB
:103ED000020151641146896C21F007019164114679
:103EE000896C41F00201916440F60701054A1160B6
:103EF000082111610221516070470000C4C00F40C9
:103F000000C002400080084002E012498968C8B23F
:103F10001049C96801F004010429F6D000BF0D4919
:103F2000C96801F001010029F9D0FF21094A916017
:103F300000BF0849C96801F010011029F9D000BF7D
:103F40000449C96801F004010029F9D001498968D0
:103F5000C8B270470080084000BF0849C96801F036
:103F600001010029F9D00549886000BF0349C968EB
:103F700001F010011029F9D07047000000800840BE
:103F800000202049096841F480111E4AC43AC2F851
:103F9000C4101C49E4310968C8B21B49D1F880102B
:103FA00021F00701184AC2F880101146D1F880109C
:103FB00041F00401C2F880101146D1F8841021F0BC
:103FC0000701C2F884101146D1F8841041F00401B1
:103FD000C2F884101146D1F8901021F00701C2F800
:103FE00090101146D1F8901041F00401064A903229
:103FF000116040F60701054A116008211161022194
:1040000051607047C4C00F4000C0024000C00A4069
:1040100002E012498968C8B21049C96801F0040178
:104020000429F6D000BF0D49C96801F0010100293B
:10403000F9D0FF21094A916000BF0849C96801F021
:1040400010011029F9D000BF0449C96801F004012A
:104050000029F9D001498968C8B2704700C00A40F8
:1040600000BF0849C96801F001010029F9D00549DC
:10407000886000BF0349C96801F010011029F9D018
:104080007047000000C00A4010B51548007810B114
:104090001448007800B910BD1348007801281CD1DD
:1040A000124800880F2190FBF1F201FB1200A0B929
:1040B0000121682000F02EFFC8230022114610467F
:1040C000FEF7BEFC0121662000F024FF4FF4487388
:1040D000002211461046FEF7B3FC00BFDBE70000EC
:1040E000D3000010D2000010D00000104E010010CC
:1040F00010B5044601220021204601F051FA0122A8
:104100001146204601F04CFA0A20FEF75FFC03211D
:104110002046FFF7C7FD132806D0102201212046B4
:1041200001F03EFA002010BD04220121204601F0DA
:1041300037FA0120F7E7000010B50446114800687F
:1041400002190421204601F061FA0F4A0C21204691
:1041500001F096FA0D4810210268204601F056FA47
:1041600040F2B4521221204601F050FA02221E21E0
:10417000204601F015FA02221F21204601F010FA14
:1041800010BD00009C000010A0000010A400001052
:1041900010B531203A49887131213948C17138212F
:1041A000017230214172352181723121C1723F216A
:1041B00001733021417381733521C1730A2404E0F6
:1041C00000212F48801D0155641C202CF8DB42F291
:1041D00010702B494880012081F84800142128489C
:1041E00080F84910A82180F84A10C02180F84B10AF
:1041F0005820234981F84C001421214880F84D10A3
:10420000A82180F84E10C02180F84F1042F22830CB
:104210001B49A1F85000002081F85200FF211848E6
:1042200080F8531080F8541080F85510002014497D
:1042300081F856001021124880F8571080F8581065
:1042400080F8591080F85A1080F85B10FE200C4955
:1042500081F8410014210A4880F84210A82180F812
:104260004310C02180F844104FF4E1600449A1F8E4
:1042700046006C2241F224010148FDF74BFC10BDC1
:104280001446001021202E49086000BF2C48006809
:1042900000F040000028F9D0012029499439086035
:1042A00009202849C1F8840001202649803108608E
:1042B000AA2024498C3108605520086000BF21489D
:1042C0008830006800F480600028F8D023201D4961
:1042D000A431086001201B49C1F8A000AA20194997
:1042E000AC31086055201749C1F8AC0000BF154833
:1042F000A830006800F480600028F8D040F2011077
:104300000F499C39086040F201200E49C1F80801AC
:1043100001200B49A03908600220094908310860D2
:1043200009480849C43108608815054928310860E2
:1043300045F23A00034908600020044908607047CC
:10434000A0C10F4000C00F40DE87280408ED00E048
:1043500010B5202200210548FDF77CFB6C2241F2BC
:1043600024010348FDF776FB10BD0000783D0010E6
:104370001446001001204FF04021086011480078D9
:10438000401C10490870087800EBD0714910A0EB70
:10439000410159B90C48006840F000600A490860C2
:1043A0000846806940F0006088610AE006480068BD
:1043B00040F00060044908600846C06940F00060B1
:1043C000C8617047690100100080092010B51A48C3
:1043D000006840F002001849C439C1F8C400022046
:1043E0004FF0402148600120086000200867886085
:1043F000C860124888610320486101200121814082
:104400004209920002F1E022C2F8001100BF03212C
:10441000002807DACA06140E094A00F00F031B1F12
:10442000D45403E0CA06130E064A135400BF0120F9
:104430004FF04021486010BDC4C00F40009F2400D1
:1044400018ED00E000E400E010B51B48006840F003
:1044500008001949C439C1F8C4001848806820F020
:104460000700164988600846806840F001008860AF
:104470000846C06820F00700C8600846C06840F0E1
:104480000100C86083200E4908730E4800680009C7
:104490004FF4E131B0FBF1F4200A094908710C70C6
:1044A00003200873872008720520FDF743FE0720CC
:1044B0000349486010BD0000C4C00F4000C0024066
:1044C00000C000400400001010B50848007810B982
:1044D0000748006848B10020044908700449086092
:1044E0004FF480610348FBF742FE10BDF40000105A
:1044F000EC000010804600100449087000BF03491A
:10450000097D01F020010029F9D0704700C000406A
:1045100070B500BF48488068C4B2641004F0070456
:10452000032C36D14448057D05F09E0010B1424869
:10453000067870BD05F0010000287BD000203F49BF
:10454000086017E03D4800683D4909680844B0F537
:10455000806F01D3FFF7B8FF374800783749096803
:10456000374A12681144374A505434480068401C96
:1045700032490860314800680828E3D330480068B1
:104580002E49096808442E49086001202E49087008
:1045900050E0022C2AD100202849086017E0274863
:1045A0000068274909680844B0F5806F01D3FFF718
:1045B0008BFF2148017821480068214A1268104485
:1045C000204A11541D480068401C1C4908601B48C3
:1045D00000680828E3D31A480068184909680844A5
:1045E0001749086001201849087023E0062C1CD1E7
:1045F00011E013480068B0F5806F01D3FFF764FF46
:104600000D4800780F490E4A126888540C4800681B
:10461000401C0B4908600848007D00F0010000289C
:10462000E7D101200849087004E0012C02D10248BA
:10463000057D00BF00BF7CE700C00040E80000101F
:10464000EC00001080460010F400001010B51F4868
:10465000006840F010001D49C439C1F8C4001C486E
:10466000D0F8000120F007001949C1F80001084600
:10467000D0F8000140F00200C1F800010846D0F86F
:10468000040120F00700C1F804010846D0F8040135
:1046900040F002000F49086083200F4908730F485B
:1046A000006800094FF4E131B0FBF1F4200A0A4937
:1046B00008710C7003200873872008720620FDF72C
:1046C00039FD07200449486010BD0000C4C00F40F8
:1046D00000C0024004C1024000000140040000107C
:1046E00010B50848007810B90748006848B10020A4
:1046F00004490870044908604FF480610348FBF7DF
:1047000036FD10BD04010010FC000010804E0010AA
:104710000449087000BF0349097D01F02001002908
:10472000F9D070470000014030B502460B46002426
:1047300004E012F8010BFFF7EBFF641C9C42F8D376
:1047400030BD000070B500BF48488068C4B2641036
:1047500004F00704032C36D14448057D05F09E0083
:1047600010B14248067870BD05F0010000287BD0EA
:1047700000203F49086017E03D4800683D4909684E
:104780000844B0F5806F01D3FFF7AAFF37480078DF
:1047900037490968374A12681144374A5054344837
:1047A0000068401C32490860314800680828E3D39B
:1047B000304800682E49096808442E4908600120E5
:1047C0002E49087050E0022C2AD1002028490860A8
:1047D00017E027480068274909680844B0F5806F4A
:1047E00001D3FFF77DFF2148017821480068214A65
:1047F00012681044204A11541D480068401C1C498E
:1048000008601B4800680828E3D31A480068184964
:10481000096808441749086001201849087023E016
:10482000062C1CD111E013480068B0F5806F01D34D
:10483000FFF756FF0D4800780F490E4A126888545A
:104840000C480068401C0B4908600848007D00F0D7
:1048500001000028E7D101200849087004E0012C7C
:1048600002D10248057D00BF00BF7CE70000014087
:10487000F8000010FC000010804E00100401001031
:1048800010B52248006840F080702049C439C1F852
:10489000C4001F48806A20F007001D49886208464E
:1048A000806A40F0010088620846C06A20F0070074
:1048B000C8620846C06A40F00100C8629B201549E2
:1048C00008731548006800094FF41661B0FBF1F455
:1048D000200A104908710C701B2008738720087289
:1048E0000720FDF727FC07200A4948600B48D0F84D
:1048F000800040F008000949C1F880000846D0F85F
:10490000980040F00800C1F8980010BDC4C00F40E6
:1049100000C002400080094004000010008009200F
:1049200010B50848007810B90748006848B1002061
:1049300004490870044908604FF480610348FBF79C
:1049400016FC10BD140100100C0100108056001060
:104950000449087000BF0349097D01F020010029C6
:10496000F9D070470080094070B504460D461748DD
:10497000006840F0080015498039C1F880000846F9
:10498000D0F89C0040F00800C1F89C00002604E02C
:1049900014F8010BFFF7DCFF761CAE42F8D30A23B4
:1049A000002211461046FEF74BF80848006840F018
:1049B000080006498039C1F880000846D0F8980000
:1049C00040F00800C1F8980070BD00008080092008
:1049D00070B500BF48488068C4B2641004F0070492
:1049E000032C36D14448057D05F09E0010B14248A5
:1049F000067870BD05F0010000287BD000203F49FB
:104A0000086017E03D4800683D4909680844B0F572
:104A1000806F01D3FFF784FF374800783749096872
:104A2000374A12681144374A505434480068401CD1
:104A300032490860314800680828E3D330480068EC
:104A40002E49096808442E49086001202E49087043
:104A500050E0022C2AD100202849086017E027489E
:104A60000068274909680844B0F5806F01D3FFF753
:104A700057FF2148017821480068214A12681044F4
:104A8000204A11541D480068401C1C4908601B48FE
:104A900000680828E3D31A480068184909680844E0
:104AA0001749086001201849087023E0062C1CD122
:104AB00011E013480068B0F5806F01D3FFF730FFB5
:104AC0000D4800780F490E4A126888540C48006857
:104AD000401C0B4908600848007D00F001000028D8
:104AE000E7D101200849087004E0012C02D10248F6
:104AF000057D00BF00BF7CE7008009400801001071
:104B00000C010010805600101401001010B51F4851
:104B1000006840F000701D49C439C1F8C4001C4849
:104B2000D0F8700220F007001949C1F87002084659
:104B3000D0F8700240F00200C1F870020846D0F8C8
:104B4000740220F00700C1F874020846D0F874021D
:104B500040F002000F49086083200F4908730F4896
:104B6000006800094FF4E131B0FBF1F4200A0A4972
:104B700008710C7003200873872008720820FDF765
:104B8000D9FA07200449486010BD0000C4C00F4096
:104B900000C0024074C2024000C00940040000107E
:104BA00010B50848007810B90748006848B10020DF
:104BB00004490870044908604FF480610348FBF71A
:104BC000D6FA10BD240100101C010010805E0010F8
:104BD00070B500BF48488068C4B2641004F0070490
:104BE000032C36D14448057D05F09E0010B14248A3
:104BF000067870BD05F0010000287BD000203F49F9
:104C0000086017E03D4800683D4909680844B0F570
:104C1000806F01D3FFF7C4FF374800783749096830
:104C2000374A12681144374A505434480068401CCF
:104C300032490860314800680828E3D330480068EA
:104C40002E49096808442E49086001202E49087041
:104C500050E0022C2AD100202849086017E027489C
:104C60000068274909680844B0F5806F01D3FFF751
:104C700097FF2148017821480068214A12681044B2
:104C8000204A11541D480068401C1C4908601B48FC
:104C900000680828E3D31A480068184909680844DE
:104CA0001749086001201849087023E0062C1CD120
:104CB00011E013480068B0F5806F01D3FFF770FF73
:104CC0000D4800780F490E4A126888540C48006855
:104CD000401C0B4908600848007D00F001000028D6
:104CE000E7D101200849087004E0012C02D10248F4
:104CF000057D00BF00BF7CE700C00940180100101F
:104D00001C010010805E00102401001010B51F4827
:104D1000006840F480701D49C439C1F8C4001C48C3
:104D2000D0F88C0220F007001949C1F88C0208461F
:104D3000D0F88C0240F00400C1F88C020846D0F88C
:104D4000900220F00700C1F890020846D0F89002C7
:104D500040F004000F49086083200F49C8600F48E5
:104D6000006800094FF41651B0FBF1F4200A0A491B
:104D70004860E0B208600320C86087208860232074
:104D8000FDF7D8F907200449486010BDC4C00F40A2
:104D900000C0024090C2024000400A4004000010DF
:104DA00010B50848007810B90748006848B10020DD
:104DB00004490870044908604FF480610348FBF718
:104DC000D6F910BD340100102C01001080660010CF
:104DD00070B500BF4A488068C4B2641004F007048C
:104DE000032C38D146484069C5B205F09E0018B181
:104DF00043480068C6B270BD05F0010000287DD0B0
:104E000000204049086017E03E4800683E490968B4
:104E10000844B0F5806F01D3FFF7C2FF384800683F
:104E200038490968384A12681144384A505435489C
:104E30000068401C33490860324800680828E3D302
:104E4000314800682F49096808442F49086001204B
:104E50002F49087052E0022C2BD10020294908600C
:104E600018E028480068284909680844B0F5806FB0
:104E700001D3FFF795FF22480068C1B221480068BE
:104E8000214A12681044214A11541E480068401CEF
:104E90001C4908601B4800680828E2D31A480068CB
:104EA0001849096808441849086001201849087021
:104EB00024E0062C1CD111E013480068B0F5806F87
:104EC00001D3FFF76DFF0E48006810490E4A1268C3
:104ED00088540D480068401C0B4908600848406928
:104EE00000F001000028E7D101200949087005E021
:104EF000012C03D102484069C5B200BF00BF7AE768
:104F000000400A40280100102C01001080660010AB
:104F100034010010F0B5CBB006460F46AA206B490D
:104F20000870F520487000204880102008716848FB
:104F30000078487166480078401C654908706348ED
:104F4000C680682E48D00EDC082E30D006DC022E3B
:104F500018D0042E1DD0062E6FD121E00A2E2DD0A0
:104F6000662E6AD131E0CA2E52D006DC6A2E3AD0C3
:104F70006C2E3FD06E2E60D143E0CC2E4FD0CE2E83
:104F80005BD153E039465148083000F004FC044638
:104F900055E039464D48083000F000FC04464EE02C
:104FA00039464A48083000F0FDFB044647E03946E0
:104FB0004648083000F022FC044640E039464348A9
:104FC000083000F0A6FE044639E039463F48083074
:104FD00000F044FC044632E039463C48083000F01A
:104FE0007DFC04462BE039463848083000F082FD4D
:104FF000044624E039463548083000F086FE044671
:105000001DE039463148083000F086FE044600BFF6
:1050100039462E48083000F085FE04460FE0394638
:105020002A48083000F053FF044600BF394627489D
:10503000083000F050FF044600BF002400BF00BF4E
:105040000CB94BB0F0BD04F10900204948800A4674
:10505000D088C21700EB12621212A0EB02220B469C
:105060005B791A440B46D988CB1701EB136302EB2B
:105070002322164B83F8082100250AE0134890F8F4
:1050800008110830405D0844104981F80801681C87
:1050900085B2A542F2DB0D4890F808010B4981F872
:1050A000080108464088421E6846FBF747F8074853
:1050B00090F808114088401E0DF8001003488178D0
:1050C0003A466846FCF714FF00BFBAE700440010F8
:1050D000D10000103EB500200090019002904F4892
:1050E000006A40F480704D4908620846C06B40F485
:1050F0008070C86349488030006840F48060C1F81F
:1051000080000846D0F89C0040F48060C1F89C0004
:10511000C820FDF75BFC4148D0F8800040F4806077
:105120003E49C1F880000846D0F8980040F48060FD
:10513000C1F89800C820FDF749FC8021002000F04C
:10514000E1FA00BFC820FDF741FC2E20FEF72CFE3F
:10515000044604F001000028F4D0002406E0304AA0
:10516000115D601C00F0CEFA601CC4B2042CF6DBAA
:10517000002406E02B4A115D601D00F0C3FA601C9C
:10518000C4B2042CF6DB002407E0274A115D04F1C9
:10519000090000F0B7FA601CC4B2062CF5DB00244D
:1051A00007E0224A115D04F10F0000F0ABFA601C29
:1051B000C4B2042CF5DB4FF47A70FDF707FC002431
:1051C00007E004F10F00FEF7EFFD0DF80400601C8E
:1051D000C4B2042CF5DB002406E0601DFEF7E4FDFC
:1051E0000DF80400601CC4B2042CF6DB002406E0B9
:1051F000601CFEF7D9FD0DF80400601CC4B2042C3D
:10520000F6DB002407E004F10900FEF7CDFD0DF800
:105210000400601CC4B2062CF5DB3EBD00800920F2
:10522000880000108C000010900000109600001004
:1052300070B5FEF7ADFF0024032507E02848405D68
:1052400028490855601CC4B2681EC5B2042CF5DBA1
:105250000024032508E022480A30405D2249085511
:10526000601CC4B2681EC5B2042CF4DB0024052502
:1052700008E01B480E30405D1C490855601CC4B254
:10528000681EC5B2062CF4DB0024032508E0144890
:10529000001D405D16490855601CC4B2681EC5B2A9
:1052A000042CF4DB0E484838B0F85000114908606F
:1052B0000024032508E00A48C01F405D0E49085538
:1052C000601CC4B2681EC5B2042CF4DB0448483824
:1052D000B0F846000949086001200949087070BD0E
:1052E0005C460010880000108C0000109000001038
:1052F000960000109C000010A0000010A4000010F8
:10530000C600001070B50546172400BF2E20FEF71A
:105310004BFD00F0010060B910220121284600F089
:105320003FF900BF2E20FEF73FFD00F001000028EE
:10533000F8D02846FEF728FD044604F0080020B106
:1053400010220121284600F02BF904F0020020B1C0
:1053500010220121284600F023F903212846FEF7F8
:10536000A1FC044664B900200E4908702846FEF7E7
:10537000E3FE00BF2846FEF7BBFE0028FAD009E096
:10538000172C07D101200749087007490870FCF75E
:10539000D9FD04E06420FDF719FB172CB6D100BF3E
:1053A00070BD0000D2000010C000001010B5002039
:1053B00008490870FFF73CFFFFF78CFE0020FCF760
:1053C00051F900B910BD0120FCF74CF900B9F9E71B
:1053D00000BFF7E7C000001001200B490870002053
:1053E0000A4908700EE04FF4FA7300221146104685
:1053F000FDF726FBFCF7E0FAFCF746FEFEF70EFD94
:10540000FEF742FEEFE70000D0000010D2000010CF
:105410002DE9F04105460F4690461E46082D02DD57
:105420000020BDE8F081144805704770C0F8048082
:10543000002011498860C860002415E0042C08DAB7
:10544000305DE10088400C49896808430A4988605A
:1054500008E0305D211FC90088400749C96808433A
:105460000549C860601CC4B2AC42E7DB01210020E2
:10547000FBF78EFE0120D4E7206F00102DE9F047E6
:1054800007460D46904624213846FEF741FC064665
:10549000B146C6F30A064148006A40F480703F49AD
:1054A00008620846C06B40F48070C8630520FCF7B2
:1054B0004CFE300AFCF7B0FAF0B2FCF7ADFA10215E
:1054C00001EB4711C9B241F00400FCF7A5FA06EB65
:1054D0000800B0F5006F09D2002404E015F8010BB4
:1054E000FCF79AFA641C4445F8D33CE0C6F5006624
:1054F000002404E015F8010BFCF78EFA641CB4429A
:10550000F8D32648006A40F48070244908620846AF
:10551000806B40F4807088630520FCF716FE1F48FE
:10552000006A40F480701D4908620846C06B40F470
:105530008070C8630520FCF708FE0020FCF76CFAB9
:105540000020FCF769FA102101EB4711C9B241F0C4
:105550000400FCF761FA04E015F8010BFCF75CFAB3
:10556000641C4445F8D30D48006A40F480700B4930
:1055700008620846806B40F4807088630520FCF761
:10558000E4FDC1444A462421384600F03FF8202279
:105590000121384600F004F8BDE8F08700800920BA
:1055A00070B504460D4616461748006A40F48070F0
:1055B000154908620846C06B40F48070C863052036
:1055C000FCF7C3FDC5F30720FCF726FAE8B2FCF7A9
:1055D00023FA082101EB4411C9B241F00500FCF7A0
:1055E0001BFA3046FCF718FA0748006A40F480704E
:1055F000054908620846806B40F480708863052086
:10560000FCF7A3FD70BD00000080092070B50446C2
:105610000D4616461948006A40F480701749086222
:105620000846C06B40F48070C8630520FCF78DFD10
:10563000C5F30720FCF7F0F9E8B2FCF7EDF9082113
:1056400001EB4411C9B241F00600FCF7E5F9C6F3DD
:105650000720FCF7E1F9F0B2FCF7DEF90748006A31
:1056600040F48070054908620846806B40F4807001
:1056700088630520FCF769FD70BD000000800920EB
:1056800070B505460E4614461D48006A40F4807009
:105690001B4908620846C06B40F48070C86305204F
:1056A000FCF753FDC6F30720FCF7B6F9F0B2FCF7A0
:1056B000B3F9082101EB4511C9B241F00700FCF72D
:1056C000ABF914F8010BFCF7A7F914F8010BFCF780
:1056D000A3F914F8010BFCF79FF914F8010BFCF780
:1056E0009BF90748006A40F4807005490862084643
:1056F000806B40F4807088630520FCF726FD70BD48
:105700000080092070B504460E461A48006A40F42D
:105710008070184908620846C06B40F48070C86306
:105720000520FCF712FD2546E11704EB1161C1F3DA
:105730000720FCF771F9E11704EB11610912A4EBE2
:105740000121C8B2FCF768F90520FCF765F930467D
:10575000FCF762F90748006A40F480700549086266
:105760000846806B40F4807088630520FCF7EDFCF0
:1057700070BD00000080092002E008C8121F08C1A7
:10578000002AFAD170477047002001E001C1121FC2
:10579000002AFBD1704702460020704702460020D5
:1057A0007047000010B502460C461146002001F873
:1057B000010B01F8010B01F8010B01F8010B0023AB
:1057C00005E00D48C05C01F8010B581CC3B2202B4A
:1057D000F7DB002001F8010B01F8010B01F8010BC8
:1057E00001F8010B01F8010B01F8010B01F8010BA5
:1057F000881A80B210BD00001A46001010B502468B
:105800000C461146002001F8010B01F8010B01F8CC
:10581000010B01F8010B002305E00B48C05C01F807
:10582000010B581CC3B2202BF7DB002001F8010B41
:1058300001F8010B01F8010B01F8010B01F8010B54
:10584000881A80B210BD00001A46001010B500235F
:10585000014C238010BD00005401001030B50246F9
:105860000C461146FF2001F8010B01F8010B002046
:1058700001F8010B01F8010B002305E01048C05CA2
:1058800001F8010B581CC3B2202BF7DB0D48008830
:10589000401C0C4D28802888C51700EB15652D127B
:1058A000A0EB052501F8015B064D2888C51700EB24
:1058B00015652D0A01F8015B881A80B230BD000021
:1058C0001A460010CC00001070B505460E4614466E
:1058D00021466820FFF71EFB70BD000010B5024690
:1058E0000C4611460D2001F8010B002001F8010BB8
:1058F00001F8010B01F8010B002305E07348C05CBF
:1059000001F8010B581CC3B2202BF7DB012001F872
:10591000010B01F8010B01F8010B002001F8010B4C
:1059200001F8010B01F8010B01F8010B01F8010B63
:1059300001F8010B01F8010B01F8010B01F8010B53
:1059400001F8010B01F8010B01F8010B01F8010B43
:1059500001F8010B01F8010B01F8010B01F8010B33
:1059600001F8010B01F8010B01F8010B01F8010B23
:1059700001F8010B01F8010B01F8010B01F8010B13
:1059800001F8010B01F8010B01F8010B01F8010B03
:1059900001F8010B01F8010B01F8010B01F8010BF3
:1059A00001F8010B01F8010B01F8010B01F8010BE3
:1059B00001F8010B01F8010B01F8010B01F8010BD3
:1059C00001F8010B01F8010B01F8010B01F8010BC3
:1059D00001F8010B01F8010B01F8010B01F8010BB3
:1059E00001F8010B01F8010B01F8010B01F8010BA3
:1059F00001F8010B01F8010B01F8010B01F8010B93
:105A000001F8010B01F8010B01F8010B01F8010B82
:105A100001F8010B01F8010B01F8010B01F8010B72
:105A2000002304E0002001F8010B581CC3B2202B16
:105A3000F8DB002001F8010B01F8010B01F8010B64
:105A400001F8010B01F8010B01F8010B01F8010B42
:105A500001F8010B01F8010B01F8010B01F8010B32
:105A600001F8010B01F8010B01F8010B01F8010B22
:105A700001F8010B01F8010B01F8010B01F8010B12
:105A800001F8010B01F8010B01F8010B01F8010B02
:105A900001F8010B01F8010B01F8010B01F8010BF2
:105AA00001F8010B01F8010B01F8010B01F8010BE2
:105AB00001F8010B01F8010B01F8010B01F8010BD2
:105AC00001F8010B881A80B210BD00001A460010C0
:105AD0002DE9F04104460F461546264601200449AB
